{
	"contracts/MicroSavingsVault.sol": {
		"MicroSavingsVault": {
			"abi": [
				{
					"inputs": [
						{
							"internalType": "address",
							"name": "_cUSD",
							"type": "address"
						},
						{
							"internalType": "address",
							"name": "_treasury",
							"type": "address"
						}
					],
					"stateMutability": "nonpayable",
					"type": "constructor"
				},
				{
					"anonymous": false,
					"inputs": [
						{
							"indexed": true,
							"internalType": "address",
							"name": "booster",
							"type": "address"
						},
						{
							"indexed": true,
							"internalType": "address",
							"name": "user",
							"type": "address"
						},
						{
							"indexed": false,
							"internalType": "uint256",
							"name": "amount",
							"type": "uint256"
						}
					],
					"name": "Boosted",
					"type": "event"
				},
				{
					"anonymous": false,
					"inputs": [
						{
							"indexed": true,
							"internalType": "address",
							"name": "user",
							"type": "address"
						},
						{
							"indexed": false,
							"internalType": "uint256",
							"name": "amount",
							"type": "uint256"
						},
						{
							"indexed": false,
							"internalType": "uint256",
							"name": "daysLocked",
							"type": "uint256"
						}
					],
					"name": "Deposited",
					"type": "event"
				},
				{
					"anonymous": false,
					"inputs": [
						{
							"indexed": true,
							"internalType": "address",
							"name": "user",
							"type": "address"
						},
						{
							"indexed": false,
							"internalType": "uint256",
							"name": "total",
							"type": "uint256"
						}
					],
					"name": "Withdrawn",
					"type": "event"
				},
				{
					"inputs": [],
					"name": "BOOST_FEE_BPS",
					"outputs": [
						{
							"internalType": "uint256",
							"name": "",
							"type": "uint256"
						}
					],
					"stateMutability": "view",
					"type": "function"
				},
				{
					"inputs": [],
					"name": "MIN_LOCK_DAYS",
					"outputs": [
						{
							"internalType": "uint256",
							"name": "",
							"type": "uint256"
						}
					],
					"stateMutability": "view",
					"type": "function"
				},
				{
					"inputs": [
						{
							"internalType": "address",
							"name": "user",
							"type": "address"
						},
						{
							"internalType": "uint256",
							"name": "amount",
							"type": "uint256"
						}
					],
					"name": "boost",
					"outputs": [],
					"stateMutability": "nonpayable",
					"type": "function"
				},
				{
					"inputs": [],
					"name": "cUSD",
					"outputs": [
						{
							"internalType": "contract IERC20",
							"name": "",
							"type": "address"
						}
					],
					"stateMutability": "view",
					"type": "function"
				},
				{
					"inputs": [
						{
							"internalType": "uint256",
							"name": "amount",
							"type": "uint256"
						},
						{
							"internalType": "uint256",
							"name": "lockDays",
							"type": "uint256"
						}
					],
					"name": "createVault",
					"outputs": [],
					"stateMutability": "nonpayable",
					"type": "function"
				},
				{
					"inputs": [],
					"name": "treasury",
					"outputs": [
						{
							"internalType": "address",
							"name": "",
							"type": "address"
						}
					],
					"stateMutability": "view",
					"type": "function"
				},
				{
					"inputs": [
						{
							"internalType": "address",
							"name": "user",
							"type": "address"
						}
					],
					"name": "vaultOf",
					"outputs": [
						{
							"internalType": "uint256",
							"name": "",
							"type": "uint256"
						},
						{
							"internalType": "uint256",
							"name": "",
							"type": "uint256"
						},
						{
							"internalType": "uint256",
							"name": "",
							"type": "uint256"
						}
					],
					"stateMutability": "view",
					"type": "function"
				},
				{
					"inputs": [
						{
							"internalType": "address",
							"name": "",
							"type": "address"
						}
					],
					"name": "vaults",
					"outputs": [
						{
							"internalType": "uint256",
							"name": "amount",
							"type": "uint256"
						},
						{
							"internalType": "uint256",
							"name": "unlockTime",
							"type": "uint256"
						},
						{
							"internalType": "uint256",
							"name": "boosted",
							"type": "uint256"
						}
					],
					"stateMutability": "view",
					"type": "function"
				},
				{
					"inputs": [],
					"name": "withdraw",
					"outputs": [],
					"stateMutability": "nonpayable",
					"type": "function"
				}
			],
			"devdoc": {
				"kind": "dev",
				"methods": {},
				"version": 1
			},
			"evm": {
				"assembly": "    /* \"contracts/MicroSavingsVault.sol\":121:2376  contract MicroSavingsVault {... */\n  mstore(0x40, 0xa0)\n    /* \"contracts/MicroSavingsVault.sol\":708:824  constructor(address _cUSD, address _treasury) {... */\n  callvalue\n  dup1\n  iszero\n  tag_1\n  jumpi\n  0x00\n  dup1\n  revert\ntag_1:\n  pop\n  mload(0x40)\n  sub(codesize, bytecodeSize)\n  dup1\n  bytecodeSize\n  dup4\n  codecopy\n  dup2\n  dup2\n  add\n  0x40\n  mstore\n  dup2\n  add\n  swap1\n  tag_2\n  swap2\n  swap1\n  tag_3\n  jump\t// in\ntag_2:\n    /* \"contracts/MicroSavingsVault.sol\":779:784  _cUSD */\n  dup2\n    /* \"contracts/MicroSavingsVault.sol\":765:785  cUSD = IERC20(_cUSD) */\n  0xffffffffffffffffffffffffffffffffffffffff\n  and\n  0x80\n  dup2\n  0xffffffffffffffffffffffffffffffffffffffff\n  and\n  dup2\n  mstore\n  pop\n  pop\n    /* \"contracts/MicroSavingsVault.sol\":807:816  _treasury */\n  dup1\n    /* \"contracts/MicroSavingsVault.sol\":796:804  treasury */\n  0x01\n  0x00\n    /* \"contracts/MicroSavingsVault.sol\":796:816  treasury = _treasury */\n  0x0100\n  exp\n  dup2\n  sload\n  dup2\n  0xffffffffffffffffffffffffffffffffffffffff\n  mul\n  not\n  and\n  swap1\n  dup4\n  0xffffffffffffffffffffffffffffffffffffffff\n  and\n  mul\n  or\n  swap1\n  sstore\n  pop\n    /* \"contracts/MicroSavingsVault.sol\":708:824  constructor(address _cUSD, address _treasury) {... */\n  pop\n  pop\n    /* \"contracts/MicroSavingsVault.sol\":121:2376  contract MicroSavingsVault {... */\n  jump(tag_6)\n    /* \"#utility.yul\":88:205   */\ntag_8:\n    /* \"#utility.yul\":197:198   */\n  0x00\n    /* \"#utility.yul\":194:195   */\n  dup1\n    /* \"#utility.yul\":187:199   */\n  revert\n    /* \"#utility.yul\":334:460   */\ntag_10:\n    /* \"#utility.yul\":371:378   */\n  0x00\n    /* \"#utility.yul\":411:453   */\n  0xffffffffffffffffffffffffffffffffffffffff\n    /* \"#utility.yul\":404:409   */\n  dup3\n    /* \"#utility.yul\":400:454   */\n  and\n    /* \"#utility.yul\":389:454   */\n  swap1\n  pop\n    /* \"#utility.yul\":334:460   */\n  swap2\n  swap1\n  pop\n  jump\t// out\n    /* \"#utility.yul\":466:562   */\ntag_11:\n    /* \"#utility.yul\":503:510   */\n  0x00\n    /* \"#utility.yul\":532:556   */\n  tag_20\n    /* \"#utility.yul\":550:555   */\n  dup3\n    /* \"#utility.yul\":532:556   */\n  tag_10\n  jump\t// in\ntag_20:\n    /* \"#utility.yul\":521:556   */\n  swap1\n  pop\n    /* \"#utility.yul\":466:562   */\n  swap2\n  swap1\n  pop\n  jump\t// out\n    /* \"#utility.yul\":568:690   */\ntag_12:\n    /* \"#utility.yul\":641:665   */\n  tag_22\n    /* \"#utility.yul\":659:664   */\n  dup2\n    /* \"#utility.yul\":641:665   */\n  tag_11\n  jump\t// in\ntag_22:\n    /* \"#utility.yul\":634:639   */\n  dup2\n    /* \"#utility.yul\":631:666   */\n  eq\n    /* \"#utility.yul\":621:684   */\n  tag_23\n  jumpi\n    /* \"#utility.yul\":680:681   */\n  0x00\n    /* \"#utility.yul\":677:678   */\n  dup1\n    /* \"#utility.yul\":670:682   */\n  revert\n    /* \"#utility.yul\":621:684   */\ntag_23:\n    /* \"#utility.yul\":568:690   */\n  pop\n  jump\t// out\n    /* \"#utility.yul\":696:839   */\ntag_13:\n    /* \"#utility.yul\":753:758   */\n  0x00\n    /* \"#utility.yul\":784:790   */\n  dup2\n    /* \"#utility.yul\":778:791   */\n  mload\n    /* \"#utility.yul\":769:791   */\n  swap1\n  pop\n    /* \"#utility.yul\":800:833   */\n  tag_25\n    /* \"#utility.yul\":827:832   */\n  dup2\n    /* \"#utility.yul\":800:833   */\n  tag_12\n  jump\t// in\ntag_25:\n    /* \"#utility.yul\":696:839   */\n  swap3\n  swap2\n  pop\n  pop\n  jump\t// out\n    /* \"#utility.yul\":845:1352   */\ntag_3:\n    /* \"#utility.yul\":924:930   */\n  0x00\n    /* \"#utility.yul\":932:938   */\n  dup1\n    /* \"#utility.yul\":981:983   */\n  0x40\n    /* \"#utility.yul\":969:978   */\n  dup4\n    /* \"#utility.yul\":960:967   */\n  dup6\n    /* \"#utility.yul\":956:979   */\n  sub\n    /* \"#utility.yul\":952:984   */\n  slt\n    /* \"#utility.yul\":949:1068   */\n  iszero\n  tag_27\n  jumpi\n    /* \"#utility.yul\":987:1066   */\n  tag_28\n  tag_8\n  jump\t// in\ntag_28:\n    /* \"#utility.yul\":949:1068   */\ntag_27:\n    /* \"#utility.yul\":1107:1108   */\n  0x00\n    /* \"#utility.yul\":1132:1196   */\n  tag_29\n    /* \"#utility.yul\":1188:1195   */\n  dup6\n    /* \"#utility.yul\":1179:1185   */\n  dup3\n    /* \"#utility.yul\":1168:1177   */\n  dup7\n    /* \"#utility.yul\":1164:1186   */\n  add\n    /* \"#utility.yul\":1132:1196   */\n  tag_13\n  jump\t// in\ntag_29:\n    /* \"#utility.yul\":1122:1196   */\n  swap3\n  pop\n    /* \"#utility.yul\":1078:1206   */\n  pop\n    /* \"#utility.yul\":1245:1247   */\n  0x20\n    /* \"#utility.yul\":1271:1335   */\n  tag_30\n    /* \"#utility.yul\":1327:1334   */\n  dup6\n    /* \"#utility.yul\":1318:1324   */\n  dup3\n    /* \"#utility.yul\":1307:1316   */\n  dup7\n    /* \"#utility.yul\":1303:1325   */\n  add\n    /* \"#utility.yul\":1271:1335   */\n  tag_13\n  jump\t// in\ntag_30:\n    /* \"#utility.yul\":1261:1335   */\n  swap2\n  pop\n    /* \"#utility.yul\":1216:1345   */\n  pop\n    /* \"#utility.yul\":845:1352   */\n  swap3\n  pop\n  swap3\n  swap1\n  pop\n  jump\t// out\n    /* \"contracts/MicroSavingsVault.sol\":121:2376  contract MicroSavingsVault {... */\ntag_6:\n  mload(0x80)\n  codecopy(0x00, dataOffset(sub_0), dataSize(sub_0))\n  0x00\n  assignImmutable(\"0x043ab7193d962ca510e48770a5a13714f4684febe0e5affcfd1eb73cfed1f218\")\n  return(0x00, dataSize(sub_0))\nstop\n\nsub_0: assembly {\n        /* \"contracts/MicroSavingsVault.sol\":121:2376  contract MicroSavingsVault {... */\n      mstore(0x40, 0x80)\n      callvalue\n      dup1\n      iszero\n      tag_1\n      jumpi\n      0x00\n      dup1\n      revert\n    tag_1:\n      pop\n      jumpi(tag_2, lt(calldatasize, 0x04))\n      shr(0xe0, calldataload(0x00))\n      dup1\n      0x61d0e43a\n      gt\n      tag_12\n      jumpi\n      dup1\n      0x61d0e43a\n      eq\n      tag_7\n      jumpi\n      dup1\n      0x9d242800\n      eq\n      tag_8\n      jumpi\n      dup1\n      0xa332a47c\n      eq\n      tag_9\n      jumpi\n      dup1\n      0xa622ee7c\n      eq\n      tag_10\n      jumpi\n      dup1\n      0xe5fbab85\n      eq\n      tag_11\n      jumpi\n      jump(tag_2)\n    tag_12:\n      dup1\n      0x0709df45\n      eq\n      tag_3\n      jumpi\n      dup1\n      0x1fccf672\n      eq\n      tag_4\n      jumpi\n      dup1\n      0x3ccfd60b\n      eq\n      tag_5\n      jumpi\n      dup1\n      0x61d027b3\n      eq\n      tag_6\n      jumpi\n    tag_2:\n      0x00\n      dup1\n      revert\n        /* \"contracts/MicroSavingsVault.sol\":2191:2373  function vaultOf(address user) external view returns (uint256, uint256, uint256) {... */\n    tag_3:\n      tag_13\n      0x04\n      dup1\n      calldatasize\n      sub\n      dup2\n      add\n      swap1\n      tag_14\n      swap2\n      swap1\n      tag_15\n      jump\t// in\n    tag_14:\n      tag_16\n      jump\t// in\n    tag_13:\n      mload(0x40)\n      tag_17\n      swap4\n      swap3\n      swap2\n      swap1\n      tag_18\n      jump\t// in\n    tag_17:\n      mload(0x40)\n      dup1\n      swap2\n      sub\n      swap1\n      return\n        /* \"contracts/MicroSavingsVault.sol\":155:183  IERC20 public immutable cUSD */\n    tag_4:\n      tag_19\n      tag_20\n      jump\t// in\n    tag_19:\n      mload(0x40)\n      tag_21\n      swap2\n      swap1\n      tag_22\n      jump\t// in\n    tag_21:\n      mload(0x40)\n      dup1\n      swap2\n      sub\n      swap1\n      return\n        /* \"contracts/MicroSavingsVault.sol\":1811:2183  function withdraw() external {... */\n    tag_5:\n      tag_23\n      tag_24\n      jump\t// in\n    tag_23:\n      stop\n        /* \"contracts/MicroSavingsVault.sol\":452:475  address public treasury */\n    tag_6:\n      tag_25\n      tag_26\n      jump\t// in\n    tag_25:\n      mload(0x40)\n      tag_27\n      swap2\n      swap1\n      tag_28\n      jump\t// in\n    tag_27:\n      mload(0x40)\n      dup1\n      swap2\n      sub\n      swap1\n      return\n        /* \"contracts/MicroSavingsVault.sol\":1319:1803  function boost(address user, uint256 amount) external {... */\n    tag_7:\n      tag_29\n      0x04\n      dup1\n      calldatasize\n      sub\n      dup2\n      add\n      swap1\n      tag_30\n      swap2\n      swap1\n      tag_31\n      jump\t// in\n    tag_30:\n      tag_32\n      jump\t// in\n    tag_29:\n      stop\n        /* \"contracts/MicroSavingsVault.sol\":190:231  uint256 public constant MIN_LOCK_DAYS = 7 */\n    tag_8:\n      tag_33\n      tag_34\n      jump\t// in\n    tag_33:\n      mload(0x40)\n      tag_35\n      swap2\n      swap1\n      tag_36\n      jump\t// in\n    tag_35:\n      mload(0x40)\n      dup1\n      swap2\n      sub\n      swap1\n      return\n        /* \"contracts/MicroSavingsVault.sol\":238:280  uint256 public constant BOOST_FEE_BPS = 50 */\n    tag_9:\n      tag_37\n      tag_38\n      jump\t// in\n    tag_37:\n      mload(0x40)\n      tag_39\n      swap2\n      swap1\n      tag_36\n      jump\t// in\n    tag_39:\n      mload(0x40)\n      dup1\n      swap2\n      sub\n      swap1\n      return\n        /* \"contracts/MicroSavingsVault.sol\":406:445  mapping(address => Vault) public vaults */\n    tag_10:\n      tag_40\n      0x04\n      dup1\n      calldatasize\n      sub\n      dup2\n      add\n      swap1\n      tag_41\n      swap2\n      swap1\n      tag_15\n      jump\t// in\n    tag_41:\n      tag_42\n      jump\t// in\n    tag_40:\n      mload(0x40)\n      tag_43\n      swap4\n      swap3\n      swap2\n      swap1\n      tag_18\n      jump\t// in\n    tag_43:\n      mload(0x40)\n      dup1\n      swap2\n      sub\n      swap1\n      return\n        /* \"contracts/MicroSavingsVault.sol\":832:1311  function createVault(uint256 amount, uint256 lockDays) external {... */\n    tag_11:\n      tag_44\n      0x04\n      dup1\n      calldatasize\n      sub\n      dup2\n      add\n      swap1\n      tag_45\n      swap2\n      swap1\n      tag_46\n      jump\t// in\n    tag_45:\n      tag_47\n      jump\t// in\n    tag_44:\n      stop\n        /* \"contracts/MicroSavingsVault.sol\":2191:2373  function vaultOf(address user) external view returns (uint256, uint256, uint256) {... */\n    tag_16:\n        /* \"contracts/MicroSavingsVault.sol\":2245:2252  uint256 */\n      0x00\n        /* \"contracts/MicroSavingsVault.sol\":2254:2261  uint256 */\n      dup1\n        /* \"contracts/MicroSavingsVault.sol\":2263:2270  uint256 */\n      0x00\n        /* \"contracts/MicroSavingsVault.sol\":2283:2297  Vault memory v */\n      dup1\n        /* \"contracts/MicroSavingsVault.sol\":2300:2306  vaults */\n      0x00\n        /* \"contracts/MicroSavingsVault.sol\":2300:2312  vaults[user] */\n      dup1\n        /* \"contracts/MicroSavingsVault.sol\":2307:2311  user */\n      dup7\n        /* \"contracts/MicroSavingsVault.sol\":2300:2312  vaults[user] */\n      0xffffffffffffffffffffffffffffffffffffffff\n      and\n      0xffffffffffffffffffffffffffffffffffffffff\n      and\n      dup2\n      mstore\n      0x20\n      add\n      swap1\n      dup2\n      mstore\n      0x20\n      add\n      0x00\n      keccak256\n        /* \"contracts/MicroSavingsVault.sol\":2283:2312  Vault memory v = vaults[user] */\n      mload(0x40)\n      dup1\n      0x60\n      add\n      0x40\n      mstore\n      swap1\n      dup2\n      0x00\n      dup3\n      add\n      sload\n      dup2\n      mstore\n      0x20\n      add\n      0x01\n      dup3\n      add\n      sload\n      dup2\n      mstore\n      0x20\n      add\n      0x02\n      dup3\n      add\n      sload\n      dup2\n      mstore\n      pop\n      pop\n      swap1\n      pop\n        /* \"contracts/MicroSavingsVault.sol\":2331:2332  v */\n      dup1\n        /* \"contracts/MicroSavingsVault.sol\":2331:2339  v.amount */\n      0x00\n      add\n      mload\n        /* \"contracts/MicroSavingsVault.sol\":2341:2342  v */\n      dup2\n        /* \"contracts/MicroSavingsVault.sol\":2341:2353  v.unlockTime */\n      0x20\n      add\n      mload\n        /* \"contracts/MicroSavingsVault.sol\":2355:2356  v */\n      dup3\n        /* \"contracts/MicroSavingsVault.sol\":2355:2364  v.boosted */\n      0x40\n      add\n      mload\n        /* \"contracts/MicroSavingsVault.sol\":2323:2365  return (v.amount, v.unlockTime, v.boosted) */\n      swap4\n      pop\n      swap4\n      pop\n      swap4\n      pop\n      pop\n        /* \"contracts/MicroSavingsVault.sol\":2191:2373  function vaultOf(address user) external view returns (uint256, uint256, uint256) {... */\n      swap2\n      swap4\n      swap1\n      swap3\n      pop\n      jump\t// out\n        /* \"contracts/MicroSavingsVault.sol\":155:183  IERC20 public immutable cUSD */\n    tag_20:\n      immutable(\"0x043ab7193d962ca510e48770a5a13714f4684febe0e5affcfd1eb73cfed1f218\")\n      dup2\n      jump\t// out\n        /* \"contracts/MicroSavingsVault.sol\":1811:2183  function withdraw() external {... */\n    tag_24:\n        /* \"contracts/MicroSavingsVault.sol\":1851:1866  Vault storage v */\n      0x00\n        /* \"contracts/MicroSavingsVault.sol\":1869:1875  vaults */\n      dup1\n        /* \"contracts/MicroSavingsVault.sol\":1869:1887  vaults[msg.sender] */\n      0x00\n        /* \"contracts/MicroSavingsVault.sol\":1876:1886  msg.sender */\n      caller\n        /* \"contracts/MicroSavingsVault.sol\":1869:1887  vaults[msg.sender] */\n      0xffffffffffffffffffffffffffffffffffffffff\n      and\n      0xffffffffffffffffffffffffffffffffffffffff\n      and\n      dup2\n      mstore\n      0x20\n      add\n      swap1\n      dup2\n      mstore\n      0x20\n      add\n      0x00\n      keccak256\n        /* \"contracts/MicroSavingsVault.sol\":1851:1887  Vault storage v = vaults[msg.sender] */\n      swap1\n      pop\n        /* \"contracts/MicroSavingsVault.sol\":1917:1918  0 */\n      0x00\n        /* \"contracts/MicroSavingsVault.sol\":1906:1907  v */\n      dup2\n        /* \"contracts/MicroSavingsVault.sol\":1906:1914  v.amount */\n      0x00\n      add\n      sload\n        /* \"contracts/MicroSavingsVault.sol\":1906:1918  v.amount > 0 */\n      gt\n        /* \"contracts/MicroSavingsVault.sol\":1898:1934  require(v.amount > 0, \"Khong co hu\") */\n      tag_50\n      jumpi\n      mload(0x40)\n      0x08c379a000000000000000000000000000000000000000000000000000000000\n      dup2\n      mstore\n      0x04\n      add\n      tag_51\n      swap1\n      tag_52\n      jump\t// in\n    tag_51:\n      mload(0x40)\n      dup1\n      swap2\n      sub\n      swap1\n      revert\n    tag_50:\n        /* \"contracts/MicroSavingsVault.sol\":1972:1973  v */\n      dup1\n        /* \"contracts/MicroSavingsVault.sol\":1972:1984  v.unlockTime */\n      0x01\n      add\n      sload\n        /* \"contracts/MicroSavingsVault.sol\":1953:1968  block.timestamp */\n      timestamp\n        /* \"contracts/MicroSavingsVault.sol\":1953:1984  block.timestamp >= v.unlockTime */\n      lt\n      iszero\n        /* \"contracts/MicroSavingsVault.sol\":1945:2001  require(block.timestamp >= v.unlockTime, \"Chua den han\") */\n      tag_53\n      jumpi\n      mload(0x40)\n      0x08c379a000000000000000000000000000000000000000000000000000000000\n      dup2\n      mstore\n      0x04\n      add\n      tag_54\n      swap1\n      tag_55\n      jump\t// in\n    tag_54:\n      mload(0x40)\n      dup1\n      swap2\n      sub\n      swap1\n      revert\n    tag_53:\n        /* \"contracts/MicroSavingsVault.sol\":2014:2027  uint256 total */\n      0x00\n        /* \"contracts/MicroSavingsVault.sol\":2041:2042  v */\n      dup2\n        /* \"contracts/MicroSavingsVault.sol\":2041:2050  v.boosted */\n      0x02\n      add\n      sload\n        /* \"contracts/MicroSavingsVault.sol\":2030:2031  v */\n      dup3\n        /* \"contracts/MicroSavingsVault.sol\":2030:2038  v.amount */\n      0x00\n      add\n      sload\n        /* \"contracts/MicroSavingsVault.sol\":2030:2050  v.amount + v.boosted */\n      tag_56\n      swap2\n      swap1\n      tag_57\n      jump\t// in\n    tag_56:\n        /* \"contracts/MicroSavingsVault.sol\":2014:2050  uint256 total = v.amount + v.boosted */\n      swap1\n      pop\n        /* \"contracts/MicroSavingsVault.sol\":2068:2074  vaults */\n      0x00\n        /* \"contracts/MicroSavingsVault.sol\":2068:2086  vaults[msg.sender] */\n      dup1\n        /* \"contracts/MicroSavingsVault.sol\":2075:2085  msg.sender */\n      caller\n        /* \"contracts/MicroSavingsVault.sol\":2068:2086  vaults[msg.sender] */\n      0xffffffffffffffffffffffffffffffffffffffff\n      and\n      0xffffffffffffffffffffffffffffffffffffffff\n      and\n      dup2\n      mstore\n      0x20\n      add\n      swap1\n      dup2\n      mstore\n      0x20\n      add\n      0x00\n      keccak256\n      0x00\n        /* \"contracts/MicroSavingsVault.sol\":2061:2086  delete vaults[msg.sender] */\n      dup1\n      dup3\n      add\n      0x00\n      swap1\n      sstore\n      0x01\n      dup3\n      add\n      0x00\n      swap1\n      sstore\n      0x02\n      dup3\n      add\n      0x00\n      swap1\n      sstore\n      pop\n      pop\n        /* \"contracts/MicroSavingsVault.sol\":2097:2101  cUSD */\n      immutable(\"0x043ab7193d962ca510e48770a5a13714f4684febe0e5affcfd1eb73cfed1f218\")\n        /* \"contracts/MicroSavingsVault.sol\":2097:2110  cUSD.transfer */\n      0xffffffffffffffffffffffffffffffffffffffff\n      and\n      0xa9059cbb\n        /* \"contracts/MicroSavingsVault.sol\":2111:2121  msg.sender */\n      caller\n        /* \"contracts/MicroSavingsVault.sol\":2123:2128  total */\n      dup4\n        /* \"contracts/MicroSavingsVault.sol\":2097:2129  cUSD.transfer(msg.sender, total) */\n      mload(0x40)\n      dup4\n      0xffffffff\n      and\n      0xe0\n      shl\n      dup2\n      mstore\n      0x04\n      add\n      tag_58\n      swap3\n      swap2\n      swap1\n      tag_59\n      jump\t// in\n    tag_58:\n      0x20\n      mload(0x40)\n      dup1\n      dup4\n      sub\n      dup2\n      0x00\n      dup8\n      gas\n      call\n      iszero\n      dup1\n      iszero\n      tag_61\n      jumpi\n      returndatasize\n      0x00\n      dup1\n      returndatacopy\n      revert(0x00, returndatasize)\n    tag_61:\n      pop\n      pop\n      pop\n      pop\n      mload(0x40)\n      returndatasize\n      not(0x1f)\n      0x1f\n      dup3\n      add\n      and\n      dup3\n      add\n      dup1\n      0x40\n      mstore\n      pop\n      dup2\n      add\n      swap1\n      tag_62\n      swap2\n      swap1\n      tag_63\n      jump\t// in\n    tag_62:\n      pop\n        /* \"contracts/MicroSavingsVault.sol\":2157:2167  msg.sender */\n      caller\n        /* \"contracts/MicroSavingsVault.sol\":2147:2175  Withdrawn(msg.sender, total) */\n      0xffffffffffffffffffffffffffffffffffffffff\n      and\n      0x7084f5476618d8e60b11ef0d7d3f06914655adb8793e28ff7f018d4c76d505d5\n        /* \"contracts/MicroSavingsVault.sol\":2169:2174  total */\n      dup3\n        /* \"contracts/MicroSavingsVault.sol\":2147:2175  Withdrawn(msg.sender, total) */\n      mload(0x40)\n      tag_64\n      swap2\n      swap1\n      tag_36\n      jump\t// in\n    tag_64:\n      mload(0x40)\n      dup1\n      swap2\n      sub\n      swap1\n      log2\n        /* \"contracts/MicroSavingsVault.sol\":1840:2183  {... */\n      pop\n      pop\n        /* \"contracts/MicroSavingsVault.sol\":1811:2183  function withdraw() external {... */\n      jump\t// out\n        /* \"contracts/MicroSavingsVault.sol\":452:475  address public treasury */\n    tag_26:\n      0x01\n      0x00\n      swap1\n      sload\n      swap1\n      0x0100\n      exp\n      swap1\n      div\n      0xffffffffffffffffffffffffffffffffffffffff\n      and\n      dup2\n      jump\t// out\n        /* \"contracts/MicroSavingsVault.sol\":1319:1803  function boost(address user, uint256 amount) external {... */\n    tag_32:\n        /* \"contracts/MicroSavingsVault.sol\":1401:1402  0 */\n      0x00\n        /* \"contracts/MicroSavingsVault.sol\":1392:1398  amount */\n      dup2\n        /* \"contracts/MicroSavingsVault.sol\":1392:1402  amount > 0 */\n      gt\n        /* \"contracts/MicroSavingsVault.sol\":1384:1418  require(amount > 0, \"So tien > 0\") */\n      tag_66\n      jumpi\n      mload(0x40)\n      0x08c379a000000000000000000000000000000000000000000000000000000000\n      dup2\n      mstore\n      0x04\n      add\n      tag_67\n      swap1\n      tag_68\n      jump\t// in\n    tag_67:\n      mload(0x40)\n      dup1\n      swap2\n      sub\n      swap1\n      revert\n    tag_66:\n        /* \"contracts/MicroSavingsVault.sol\":1429:1444  Vault storage v */\n      0x00\n        /* \"contracts/MicroSavingsVault.sol\":1447:1453  vaults */\n      dup1\n        /* \"contracts/MicroSavingsVault.sol\":1447:1459  vaults[user] */\n      0x00\n        /* \"contracts/MicroSavingsVault.sol\":1454:1458  user */\n      dup5\n        /* \"contracts/MicroSavingsVault.sol\":1447:1459  vaults[user] */\n      0xffffffffffffffffffffffffffffffffffffffff\n      and\n      0xffffffffffffffffffffffffffffffffffffffff\n      and\n      dup2\n      mstore\n      0x20\n      add\n      swap1\n      dup2\n      mstore\n      0x20\n      add\n      0x00\n      keccak256\n        /* \"contracts/MicroSavingsVault.sol\":1429:1459  Vault storage v = vaults[user] */\n      swap1\n      pop\n        /* \"contracts/MicroSavingsVault.sol\":1489:1490  0 */\n      0x00\n        /* \"contracts/MicroSavingsVault.sol\":1478:1479  v */\n      dup2\n        /* \"contracts/MicroSavingsVault.sol\":1478:1486  v.amount */\n      0x00\n      add\n      sload\n        /* \"contracts/MicroSavingsVault.sol\":1478:1490  v.amount > 0 */\n      gt\n        /* \"contracts/MicroSavingsVault.sol\":1470:1506  require(v.amount > 0, \"Khong co hu\") */\n      tag_69\n      jumpi\n      mload(0x40)\n      0x08c379a000000000000000000000000000000000000000000000000000000000\n      dup2\n      mstore\n      0x04\n      add\n      tag_70\n      swap1\n      tag_52\n      jump\t// in\n    tag_70:\n      mload(0x40)\n      dup1\n      swap2\n      sub\n      swap1\n      revert\n    tag_69:\n        /* \"contracts/MicroSavingsVault.sol\":1519:1530  uint256 fee */\n      0x00\n        /* \"contracts/MicroSavingsVault.sol\":1560:1566  10_000 */\n      0x2710\n        /* \"contracts/MicroSavingsVault.sol\":278:280  50 */\n      0x32\n        /* \"contracts/MicroSavingsVault.sol\":1534:1540  amount */\n      dup5\n        /* \"contracts/MicroSavingsVault.sol\":1534:1556  amount * BOOST_FEE_BPS */\n      tag_71\n      swap2\n      swap1\n      tag_72\n      jump\t// in\n    tag_71:\n        /* \"contracts/MicroSavingsVault.sol\":1533:1566  (amount * BOOST_FEE_BPS) / 10_000 */\n      tag_73\n      swap2\n      swap1\n      tag_74\n      jump\t// in\n    tag_73:\n        /* \"contracts/MicroSavingsVault.sol\":1519:1566  uint256 fee = (amount * BOOST_FEE_BPS) / 10_000 */\n      swap1\n      pop\n        /* \"contracts/MicroSavingsVault.sol\":1577:1588  uint256 net */\n      0x00\n        /* \"contracts/MicroSavingsVault.sol\":1600:1603  fee */\n      dup2\n        /* \"contracts/MicroSavingsVault.sol\":1591:1597  amount */\n      dup5\n        /* \"contracts/MicroSavingsVault.sol\":1591:1603  amount - fee */\n      tag_75\n      swap2\n      swap1\n      tag_76\n      jump\t// in\n    tag_75:\n        /* \"contracts/MicroSavingsVault.sol\":1577:1603  uint256 net = amount - fee */\n      swap1\n      pop\n        /* \"contracts/MicroSavingsVault.sol\":1616:1620  cUSD */\n      immutable(\"0x043ab7193d962ca510e48770a5a13714f4684febe0e5affcfd1eb73cfed1f218\")\n        /* \"contracts/MicroSavingsVault.sol\":1616:1633  cUSD.transferFrom */\n      0xffffffffffffffffffffffffffffffffffffffff\n      and\n      0x23b872dd\n        /* \"contracts/MicroSavingsVault.sol\":1634:1644  msg.sender */\n      caller\n        /* \"contracts/MicroSavingsVault.sol\":1646:1654  treasury */\n      0x01\n      0x00\n      swap1\n      sload\n      swap1\n      0x0100\n      exp\n      swap1\n      div\n      0xffffffffffffffffffffffffffffffffffffffff\n      and\n        /* \"contracts/MicroSavingsVault.sol\":1656:1659  fee */\n      dup6\n        /* \"contracts/MicroSavingsVault.sol\":1616:1660  cUSD.transferFrom(msg.sender, treasury, fee) */\n      mload(0x40)\n      dup5\n      0xffffffff\n      and\n      0xe0\n      shl\n      dup2\n      mstore\n      0x04\n      add\n      tag_77\n      swap4\n      swap3\n      swap2\n      swap1\n      tag_78\n      jump\t// in\n    tag_77:\n      0x20\n      mload(0x40)\n      dup1\n      dup4\n      sub\n      dup2\n      0x00\n      dup8\n      gas\n      call\n      iszero\n      dup1\n      iszero\n      tag_80\n      jumpi\n      returndatasize\n      0x00\n      dup1\n      returndatacopy\n      revert(0x00, returndatasize)\n    tag_80:\n      pop\n      pop\n      pop\n      pop\n      mload(0x40)\n      returndatasize\n      not(0x1f)\n      0x1f\n      dup3\n      add\n      and\n      dup3\n      add\n      dup1\n      0x40\n      mstore\n      pop\n      dup2\n      add\n      swap1\n      tag_81\n      swap2\n      swap1\n      tag_63\n      jump\t// in\n    tag_81:\n      pop\n        /* \"contracts/MicroSavingsVault.sol\":1671:1675  cUSD */\n      immutable(\"0x043ab7193d962ca510e48770a5a13714f4684febe0e5affcfd1eb73cfed1f218\")\n        /* \"contracts/MicroSavingsVault.sol\":1671:1688  cUSD.transferFrom */\n      0xffffffffffffffffffffffffffffffffffffffff\n      and\n      0x23b872dd\n        /* \"contracts/MicroSavingsVault.sol\":1689:1699  msg.sender */\n      caller\n        /* \"contracts/MicroSavingsVault.sol\":1709:1713  this */\n      address\n        /* \"contracts/MicroSavingsVault.sol\":1716:1719  net */\n      dup5\n        /* \"contracts/MicroSavingsVault.sol\":1671:1720  cUSD.transferFrom(msg.sender, address(this), net) */\n      mload(0x40)\n      dup5\n      0xffffffff\n      and\n      0xe0\n      shl\n      dup2\n      mstore\n      0x04\n      add\n      tag_82\n      swap4\n      swap3\n      swap2\n      swap1\n      tag_78\n      jump\t// in\n    tag_82:\n      0x20\n      mload(0x40)\n      dup1\n      dup4\n      sub\n      dup2\n      0x00\n      dup8\n      gas\n      call\n      iszero\n      dup1\n      iszero\n      tag_84\n      jumpi\n      returndatasize\n      0x00\n      dup1\n      returndatacopy\n      revert(0x00, returndatasize)\n    tag_84:\n      pop\n      pop\n      pop\n      pop\n      mload(0x40)\n      returndatasize\n      not(0x1f)\n      0x1f\n      dup3\n      add\n      and\n      dup3\n      add\n      dup1\n      0x40\n      mstore\n      pop\n      dup2\n      add\n      swap1\n      tag_85\n      swap2\n      swap1\n      tag_63\n      jump\t// in\n    tag_85:\n      pop\n        /* \"contracts/MicroSavingsVault.sol\":1744:1747  net */\n      dup1\n        /* \"contracts/MicroSavingsVault.sol\":1731:1732  v */\n      dup4\n        /* \"contracts/MicroSavingsVault.sol\":1731:1740  v.boosted */\n      0x02\n      add\n      0x00\n        /* \"contracts/MicroSavingsVault.sol\":1731:1747  v.boosted += net */\n      dup3\n      dup3\n      sload\n      tag_86\n      swap2\n      swap1\n      tag_57\n      jump\t// in\n    tag_86:\n      swap3\n      pop\n      pop\n      dup2\n      swap1\n      sstore\n      pop\n        /* \"contracts/MicroSavingsVault.sol\":1785:1789  user */\n      dup5\n        /* \"contracts/MicroSavingsVault.sol\":1765:1795  Boosted(msg.sender, user, net) */\n      0xffffffffffffffffffffffffffffffffffffffff\n      and\n        /* \"contracts/MicroSavingsVault.sol\":1773:1783  msg.sender */\n      caller\n        /* \"contracts/MicroSavingsVault.sol\":1765:1795  Boosted(msg.sender, user, net) */\n      0xffffffffffffffffffffffffffffffffffffffff\n      and\n      0x5bc277f123189e58865edca1ddf0e9c8a4252cf0d97cdc8bbd84d6278655124e\n        /* \"contracts/MicroSavingsVault.sol\":1791:1794  net */\n      dup4\n        /* \"contracts/MicroSavingsVault.sol\":1765:1795  Boosted(msg.sender, user, net) */\n      mload(0x40)\n      tag_87\n      swap2\n      swap1\n      tag_36\n      jump\t// in\n    tag_87:\n      mload(0x40)\n      dup1\n      swap2\n      sub\n      swap1\n      log3\n        /* \"contracts/MicroSavingsVault.sol\":1373:1803  {... */\n      pop\n      pop\n      pop\n        /* \"contracts/MicroSavingsVault.sol\":1319:1803  function boost(address user, uint256 amount) external {... */\n      pop\n      pop\n      jump\t// out\n        /* \"contracts/MicroSavingsVault.sol\":190:231  uint256 public constant MIN_LOCK_DAYS = 7 */\n    tag_34:\n        /* \"contracts/MicroSavingsVault.sol\":230:231  7 */\n      0x07\n        /* \"contracts/MicroSavingsVault.sol\":190:231  uint256 public constant MIN_LOCK_DAYS = 7 */\n      dup2\n      jump\t// out\n        /* \"contracts/MicroSavingsVault.sol\":238:280  uint256 public constant BOOST_FEE_BPS = 50 */\n    tag_38:\n        /* \"contracts/MicroSavingsVault.sol\":278:280  50 */\n      0x32\n        /* \"contracts/MicroSavingsVault.sol\":238:280  uint256 public constant BOOST_FEE_BPS = 50 */\n      dup2\n      jump\t// out\n        /* \"contracts/MicroSavingsVault.sol\":406:445  mapping(address => Vault) public vaults */\n    tag_42:\n      mstore(0x20, 0x00)\n      dup1\n      0x00\n      mstore\n      keccak256(0x00, 0x40)\n      0x00\n      swap2\n      pop\n      swap1\n      pop\n      dup1\n      0x00\n      add\n      sload\n      swap1\n      dup1\n      0x01\n      add\n      sload\n      swap1\n      dup1\n      0x02\n      add\n      sload\n      swap1\n      pop\n      dup4\n      jump\t// out\n        /* \"contracts/MicroSavingsVault.sol\":832:1311  function createVault(uint256 amount, uint256 lockDays) external {... */\n    tag_47:\n        /* \"contracts/MicroSavingsVault.sol\":230:231  7 */\n      0x07\n        /* \"contracts/MicroSavingsVault.sol\":915:923  lockDays */\n      dup2\n        /* \"contracts/MicroSavingsVault.sol\":915:940  lockDays >= MIN_LOCK_DAYS */\n      lt\n      iszero\n        /* \"contracts/MicroSavingsVault.sol\":907:959  require(lockDays >= MIN_LOCK_DAYS, \"It nhat 7 ngay\") */\n      tag_89\n      jumpi\n      mload(0x40)\n      0x08c379a000000000000000000000000000000000000000000000000000000000\n      dup2\n      mstore\n      0x04\n      add\n      tag_90\n      swap1\n      tag_91\n      jump\t// in\n    tag_90:\n      mload(0x40)\n      dup1\n      swap2\n      sub\n      swap1\n      revert\n    tag_89:\n        /* \"contracts/MicroSavingsVault.sol\":987:988  0 */\n      0x00\n        /* \"contracts/MicroSavingsVault.sol\":978:984  amount */\n      dup3\n        /* \"contracts/MicroSavingsVault.sol\":978:988  amount > 0 */\n      gt\n        /* \"contracts/MicroSavingsVault.sol\":970:1004  require(amount > 0, \"So tien > 0\") */\n      tag_92\n      jumpi\n      mload(0x40)\n      0x08c379a000000000000000000000000000000000000000000000000000000000\n      dup2\n      mstore\n      0x04\n      add\n      tag_93\n      swap1\n      tag_68\n      jump\t// in\n    tag_93:\n      mload(0x40)\n      dup1\n      swap2\n      sub\n      swap1\n      revert\n    tag_92:\n        /* \"contracts/MicroSavingsVault.sol\":1015:1030  Vault storage v */\n      0x00\n        /* \"contracts/MicroSavingsVault.sol\":1033:1039  vaults */\n      dup1\n        /* \"contracts/MicroSavingsVault.sol\":1033:1051  vaults[msg.sender] */\n      0x00\n        /* \"contracts/MicroSavingsVault.sol\":1040:1050  msg.sender */\n      caller\n        /* \"contracts/MicroSavingsVault.sol\":1033:1051  vaults[msg.sender] */\n      0xffffffffffffffffffffffffffffffffffffffff\n      and\n      0xffffffffffffffffffffffffffffffffffffffff\n      and\n      dup2\n      mstore\n      0x20\n      add\n      swap1\n      dup2\n      mstore\n      0x20\n      add\n      0x00\n      keccak256\n        /* \"contracts/MicroSavingsVault.sol\":1015:1051  Vault storage v = vaults[msg.sender] */\n      swap1\n      pop\n        /* \"contracts/MicroSavingsVault.sol\":1082:1083  0 */\n      0x00\n        /* \"contracts/MicroSavingsVault.sol\":1070:1071  v */\n      dup2\n        /* \"contracts/MicroSavingsVault.sol\":1070:1078  v.amount */\n      0x00\n      add\n      sload\n        /* \"contracts/MicroSavingsVault.sol\":1070:1083  v.amount == 0 */\n      eq\n        /* \"contracts/MicroSavingsVault.sol\":1062:1096  require(v.amount == 0, \"Da co hu\") */\n      tag_94\n      jumpi\n      mload(0x40)\n      0x08c379a000000000000000000000000000000000000000000000000000000000\n      dup2\n      mstore\n      0x04\n      add\n      tag_95\n      swap1\n      tag_96\n      jump\t// in\n    tag_95:\n      mload(0x40)\n      dup1\n      swap2\n      sub\n      swap1\n      revert\n    tag_94:\n        /* \"contracts/MicroSavingsVault.sol\":1109:1113  cUSD */\n      immutable(\"0x043ab7193d962ca510e48770a5a13714f4684febe0e5affcfd1eb73cfed1f218\")\n        /* \"contracts/MicroSavingsVault.sol\":1109:1126  cUSD.transferFrom */\n      0xffffffffffffffffffffffffffffffffffffffff\n      and\n      0x23b872dd\n        /* \"contracts/MicroSavingsVault.sol\":1127:1137  msg.sender */\n      caller\n        /* \"contracts/MicroSavingsVault.sol\":1147:1151  this */\n      address\n        /* \"contracts/MicroSavingsVault.sol\":1154:1160  amount */\n      dup7\n        /* \"contracts/MicroSavingsVault.sol\":1109:1161  cUSD.transferFrom(msg.sender, address(this), amount) */\n      mload(0x40)\n      dup5\n      0xffffffff\n      and\n      0xe0\n      shl\n      dup2\n      mstore\n      0x04\n      add\n      tag_97\n      swap4\n      swap3\n      swap2\n      swap1\n      tag_78\n      jump\t// in\n    tag_97:\n      0x20\n      mload(0x40)\n      dup1\n      dup4\n      sub\n      dup2\n      0x00\n      dup8\n      gas\n      call\n      iszero\n      dup1\n      iszero\n      tag_99\n      jumpi\n      returndatasize\n      0x00\n      dup1\n      returndatacopy\n      revert(0x00, returndatasize)\n    tag_99:\n      pop\n      pop\n      pop\n      pop\n      mload(0x40)\n      returndatasize\n      not(0x1f)\n      0x1f\n      dup3\n      add\n      and\n      dup3\n      add\n      dup1\n      0x40\n      mstore\n      pop\n      dup2\n      add\n      swap1\n      tag_100\n      swap2\n      swap1\n      tag_63\n      jump\t// in\n    tag_100:\n      pop\n        /* \"contracts/MicroSavingsVault.sol\":1183:1189  amount */\n      dup3\n        /* \"contracts/MicroSavingsVault.sol\":1172:1173  v */\n      dup2\n        /* \"contracts/MicroSavingsVault.sol\":1172:1180  v.amount */\n      0x00\n      add\n        /* \"contracts/MicroSavingsVault.sol\":1172:1189  v.amount = amount */\n      dup2\n      swap1\n      sstore\n      pop\n        /* \"contracts/MicroSavingsVault.sol\":1244:1246  30 */\n      0x1e\n        /* \"contracts/MicroSavingsVault.sol\":1233:1241  lockDays */\n      dup3\n        /* \"contracts/MicroSavingsVault.sol\":1233:1246  lockDays * 30 */\n      tag_101\n      swap2\n      swap1\n      tag_72\n      jump\t// in\n    tag_101:\n        /* \"contracts/MicroSavingsVault.sol\":1215:1230  block.timestamp */\n      timestamp\n        /* \"contracts/MicroSavingsVault.sol\":1215:1246  block.timestamp + lockDays * 30 */\n      tag_102\n      swap2\n      swap1\n      tag_57\n      jump\t// in\n    tag_102:\n        /* \"contracts/MicroSavingsVault.sol\":1200:1201  v */\n      dup2\n        /* \"contracts/MicroSavingsVault.sol\":1200:1212  v.unlockTime */\n      0x01\n      add\n        /* \"contracts/MicroSavingsVault.sol\":1200:1246  v.unlockTime = block.timestamp + lockDays * 30 */\n      dup2\n      swap1\n      sstore\n      pop\n        /* \"contracts/MicroSavingsVault.sol\":1274:1284  msg.sender */\n      caller\n        /* \"contracts/MicroSavingsVault.sol\":1264:1303  Deposited(msg.sender, amount, lockDays) */\n      0xffffffffffffffffffffffffffffffffffffffff\n      and\n      0x73a19dd210f1a7f902193214c0ee91dd35ee5b4d920cba8d519eca65a7b488ca\n        /* \"contracts/MicroSavingsVault.sol\":1286:1292  amount */\n      dup5\n        /* \"contracts/MicroSavingsVault.sol\":1294:1302  lockDays */\n      dup5\n        /* \"contracts/MicroSavingsVault.sol\":1264:1303  Deposited(msg.sender, amount, lockDays) */\n      mload(0x40)\n      tag_103\n      swap3\n      swap2\n      swap1\n      tag_104\n      jump\t// in\n    tag_103:\n      mload(0x40)\n      dup1\n      swap2\n      sub\n      swap1\n      log2\n        /* \"contracts/MicroSavingsVault.sol\":896:1311  {... */\n      pop\n        /* \"contracts/MicroSavingsVault.sol\":832:1311  function createVault(uint256 amount, uint256 lockDays) external {... */\n      pop\n      pop\n      jump\t// out\n        /* \"#utility.yul\":88:205   */\n    tag_106:\n        /* \"#utility.yul\":197:198   */\n      0x00\n        /* \"#utility.yul\":194:195   */\n      dup1\n        /* \"#utility.yul\":187:199   */\n      revert\n        /* \"#utility.yul\":334:460   */\n    tag_108:\n        /* \"#utility.yul\":371:378   */\n      0x00\n        /* \"#utility.yul\":411:453   */\n      0xffffffffffffffffffffffffffffffffffffffff\n        /* \"#utility.yul\":404:409   */\n      dup3\n        /* \"#utility.yul\":400:454   */\n      and\n        /* \"#utility.yul\":389:454   */\n      swap1\n      pop\n        /* \"#utility.yul\":334:460   */\n      swap2\n      swap1\n      pop\n      jump\t// out\n        /* \"#utility.yul\":466:562   */\n    tag_109:\n        /* \"#utility.yul\":503:510   */\n      0x00\n        /* \"#utility.yul\":532:556   */\n      tag_144\n        /* \"#utility.yul\":550:555   */\n      dup3\n        /* \"#utility.yul\":532:556   */\n      tag_108\n      jump\t// in\n    tag_144:\n        /* \"#utility.yul\":521:556   */\n      swap1\n      pop\n        /* \"#utility.yul\":466:562   */\n      swap2\n      swap1\n      pop\n      jump\t// out\n        /* \"#utility.yul\":568:690   */\n    tag_110:\n        /* \"#utility.yul\":641:665   */\n      tag_146\n        /* \"#utility.yul\":659:664   */\n      dup2\n        /* \"#utility.yul\":641:665   */\n      tag_109\n      jump\t// in\n    tag_146:\n        /* \"#utility.yul\":634:639   */\n      dup2\n        /* \"#utility.yul\":631:666   */\n      eq\n        /* \"#utility.yul\":621:684   */\n      tag_147\n      jumpi\n        /* \"#utility.yul\":680:681   */\n      0x00\n        /* \"#utility.yul\":677:678   */\n      dup1\n        /* \"#utility.yul\":670:682   */\n      revert\n        /* \"#utility.yul\":621:684   */\n    tag_147:\n        /* \"#utility.yul\":568:690   */\n      pop\n      jump\t// out\n        /* \"#utility.yul\":696:835   */\n    tag_111:\n        /* \"#utility.yul\":742:747   */\n      0x00\n        /* \"#utility.yul\":780:786   */\n      dup2\n        /* \"#utility.yul\":767:787   */\n      calldataload\n        /* \"#utility.yul\":758:787   */\n      swap1\n      pop\n        /* \"#utility.yul\":796:829   */\n      tag_149\n        /* \"#utility.yul\":823:828   */\n      dup2\n        /* \"#utility.yul\":796:829   */\n      tag_110\n      jump\t// in\n    tag_149:\n        /* \"#utility.yul\":696:835   */\n      swap3\n      swap2\n      pop\n      pop\n      jump\t// out\n        /* \"#utility.yul\":841:1170   */\n    tag_15:\n        /* \"#utility.yul\":900:906   */\n      0x00\n        /* \"#utility.yul\":949:951   */\n      0x20\n        /* \"#utility.yul\":937:946   */\n      dup3\n        /* \"#utility.yul\":928:935   */\n      dup5\n        /* \"#utility.yul\":924:947   */\n      sub\n        /* \"#utility.yul\":920:952   */\n      slt\n        /* \"#utility.yul\":917:1036   */\n      iszero\n      tag_151\n      jumpi\n        /* \"#utility.yul\":955:1034   */\n      tag_152\n      tag_106\n      jump\t// in\n    tag_152:\n        /* \"#utility.yul\":917:1036   */\n    tag_151:\n        /* \"#utility.yul\":1075:1076   */\n      0x00\n        /* \"#utility.yul\":1100:1153   */\n      tag_153\n        /* \"#utility.yul\":1145:1152   */\n      dup5\n        /* \"#utility.yul\":1136:1142   */\n      dup3\n        /* \"#utility.yul\":1125:1134   */\n      dup6\n        /* \"#utility.yul\":1121:1143   */\n      add\n        /* \"#utility.yul\":1100:1153   */\n      tag_111\n      jump\t// in\n    tag_153:\n        /* \"#utility.yul\":1090:1153   */\n      swap2\n      pop\n        /* \"#utility.yul\":1046:1163   */\n      pop\n        /* \"#utility.yul\":841:1170   */\n      swap3\n      swap2\n      pop\n      pop\n      jump\t// out\n        /* \"#utility.yul\":1176:1253   */\n    tag_112:\n        /* \"#utility.yul\":1213:1220   */\n      0x00\n        /* \"#utility.yul\":1242:1247   */\n      dup2\n        /* \"#utility.yul\":1231:1247   */\n      swap1\n      pop\n        /* \"#utility.yul\":1176:1253   */\n      swap2\n      swap1\n      pop\n      jump\t// out\n        /* \"#utility.yul\":1259:1377   */\n    tag_113:\n        /* \"#utility.yul\":1346:1370   */\n      tag_156\n        /* \"#utility.yul\":1364:1369   */\n      dup2\n        /* \"#utility.yul\":1346:1370   */\n      tag_112\n      jump\t// in\n    tag_156:\n        /* \"#utility.yul\":1341:1344   */\n      dup3\n        /* \"#utility.yul\":1334:1371   */\n      mstore\n        /* \"#utility.yul\":1259:1377   */\n      pop\n      pop\n      jump\t// out\n        /* \"#utility.yul\":1383:1825   */\n    tag_18:\n        /* \"#utility.yul\":1532:1536   */\n      0x00\n        /* \"#utility.yul\":1570:1572   */\n      0x60\n        /* \"#utility.yul\":1559:1568   */\n      dup3\n        /* \"#utility.yul\":1555:1573   */\n      add\n        /* \"#utility.yul\":1547:1573   */\n      swap1\n      pop\n        /* \"#utility.yul\":1583:1654   */\n      tag_158\n        /* \"#utility.yul\":1651:1652   */\n      0x00\n        /* \"#utility.yul\":1640:1649   */\n      dup4\n        /* \"#utility.yul\":1636:1653   */\n      add\n        /* \"#utility.yul\":1627:1633   */\n      dup7\n        /* \"#utility.yul\":1583:1654   */\n      tag_113\n      jump\t// in\n    tag_158:\n        /* \"#utility.yul\":1664:1736   */\n      tag_159\n        /* \"#utility.yul\":1732:1734   */\n      0x20\n        /* \"#utility.yul\":1721:1730   */\n      dup4\n        /* \"#utility.yul\":1717:1735   */\n      add\n        /* \"#utility.yul\":1708:1714   */\n      dup6\n        /* \"#utility.yul\":1664:1736   */\n      tag_113\n      jump\t// in\n    tag_159:\n        /* \"#utility.yul\":1746:1818   */\n      tag_160\n        /* \"#utility.yul\":1814:1816   */\n      0x40\n        /* \"#utility.yul\":1803:1812   */\n      dup4\n        /* \"#utility.yul\":1799:1817   */\n      add\n        /* \"#utility.yul\":1790:1796   */\n      dup5\n        /* \"#utility.yul\":1746:1818   */\n      tag_113\n      jump\t// in\n    tag_160:\n        /* \"#utility.yul\":1383:1825   */\n      swap5\n      swap4\n      pop\n      pop\n      pop\n      pop\n      jump\t// out\n        /* \"#utility.yul\":1831:1891   */\n    tag_114:\n        /* \"#utility.yul\":1859:1862   */\n      0x00\n        /* \"#utility.yul\":1880:1885   */\n      dup2\n        /* \"#utility.yul\":1873:1885   */\n      swap1\n      pop\n        /* \"#utility.yul\":1831:1891   */\n      swap2\n      swap1\n      pop\n      jump\t// out\n        /* \"#utility.yul\":1897:2039   */\n    tag_115:\n        /* \"#utility.yul\":1947:1956   */\n      0x00\n        /* \"#utility.yul\":1980:2033   */\n      tag_163\n        /* \"#utility.yul\":1998:2032   */\n      tag_164\n        /* \"#utility.yul\":2007:2031   */\n      tag_165\n        /* \"#utility.yul\":2025:2030   */\n      dup5\n        /* \"#utility.yul\":2007:2031   */\n      tag_108\n      jump\t// in\n    tag_165:\n        /* \"#utility.yul\":1998:2032   */\n      tag_114\n      jump\t// in\n    tag_164:\n        /* \"#utility.yul\":1980:2033   */\n      tag_108\n      jump\t// in\n    tag_163:\n        /* \"#utility.yul\":1967:2033   */\n      swap1\n      pop\n        /* \"#utility.yul\":1897:2039   */\n      swap2\n      swap1\n      pop\n      jump\t// out\n        /* \"#utility.yul\":2045:2171   */\n    tag_116:\n        /* \"#utility.yul\":2095:2104   */\n      0x00\n        /* \"#utility.yul\":2128:2165   */\n      tag_167\n        /* \"#utility.yul\":2159:2164   */\n      dup3\n        /* \"#utility.yul\":2128:2165   */\n      tag_115\n      jump\t// in\n    tag_167:\n        /* \"#utility.yul\":2115:2165   */\n      swap1\n      pop\n        /* \"#utility.yul\":2045:2171   */\n      swap2\n      swap1\n      pop\n      jump\t// out\n        /* \"#utility.yul\":2177:2316   */\n    tag_117:\n        /* \"#utility.yul\":2240:2249   */\n      0x00\n        /* \"#utility.yul\":2273:2310   */\n      tag_169\n        /* \"#utility.yul\":2304:2309   */\n      dup3\n        /* \"#utility.yul\":2273:2310   */\n      tag_116\n      jump\t// in\n    tag_169:\n        /* \"#utility.yul\":2260:2310   */\n      swap1\n      pop\n        /* \"#utility.yul\":2177:2316   */\n      swap2\n      swap1\n      pop\n      jump\t// out\n        /* \"#utility.yul\":2322:2479   */\n    tag_118:\n        /* \"#utility.yul\":2422:2472   */\n      tag_171\n        /* \"#utility.yul\":2466:2471   */\n      dup2\n        /* \"#utility.yul\":2422:2472   */\n      tag_117\n      jump\t// in\n    tag_171:\n        /* \"#utility.yul\":2417:2420   */\n      dup3\n        /* \"#utility.yul\":2410:2473   */\n      mstore\n        /* \"#utility.yul\":2322:2479   */\n      pop\n      pop\n      jump\t// out\n        /* \"#utility.yul\":2485:2733   */\n    tag_22:\n        /* \"#utility.yul\":2591:2595   */\n      0x00\n        /* \"#utility.yul\":2629:2631   */\n      0x20\n        /* \"#utility.yul\":2618:2627   */\n      dup3\n        /* \"#utility.yul\":2614:2632   */\n      add\n        /* \"#utility.yul\":2606:2632   */\n      swap1\n      pop\n        /* \"#utility.yul\":2642:2726   */\n      tag_173\n        /* \"#utility.yul\":2723:2724   */\n      0x00\n        /* \"#utility.yul\":2712:2721   */\n      dup4\n        /* \"#utility.yul\":2708:2725   */\n      add\n        /* \"#utility.yul\":2699:2705   */\n      dup5\n        /* \"#utility.yul\":2642:2726   */\n      tag_118\n      jump\t// in\n    tag_173:\n        /* \"#utility.yul\":2485:2733   */\n      swap3\n      swap2\n      pop\n      pop\n      jump\t// out\n        /* \"#utility.yul\":2739:2857   */\n    tag_119:\n        /* \"#utility.yul\":2826:2850   */\n      tag_175\n        /* \"#utility.yul\":2844:2849   */\n      dup2\n        /* \"#utility.yul\":2826:2850   */\n      tag_109\n      jump\t// in\n    tag_175:\n        /* \"#utility.yul\":2821:2824   */\n      dup3\n        /* \"#utility.yul\":2814:2851   */\n      mstore\n        /* \"#utility.yul\":2739:2857   */\n      pop\n      pop\n      jump\t// out\n        /* \"#utility.yul\":2863:3085   */\n    tag_28:\n        /* \"#utility.yul\":2956:2960   */\n      0x00\n        /* \"#utility.yul\":2994:2996   */\n      0x20\n        /* \"#utility.yul\":2983:2992   */\n      dup3\n        /* \"#utility.yul\":2979:2997   */\n      add\n        /* \"#utility.yul\":2971:2997   */\n      swap1\n      pop\n        /* \"#utility.yul\":3007:3078   */\n      tag_177\n        /* \"#utility.yul\":3075:3076   */\n      0x00\n        /* \"#utility.yul\":3064:3073   */\n      dup4\n        /* \"#utility.yul\":3060:3077   */\n      add\n        /* \"#utility.yul\":3051:3057   */\n      dup5\n        /* \"#utility.yul\":3007:3078   */\n      tag_119\n      jump\t// in\n    tag_177:\n        /* \"#utility.yul\":2863:3085   */\n      swap3\n      swap2\n      pop\n      pop\n      jump\t// out\n        /* \"#utility.yul\":3091:3213   */\n    tag_120:\n        /* \"#utility.yul\":3164:3188   */\n      tag_179\n        /* \"#utility.yul\":3182:3187   */\n      dup2\n        /* \"#utility.yul\":3164:3188   */\n      tag_112\n      jump\t// in\n    tag_179:\n        /* \"#utility.yul\":3157:3162   */\n      dup2\n        /* \"#utility.yul\":3154:3189   */\n      eq\n        /* \"#utility.yul\":3144:3207   */\n      tag_180\n      jumpi\n        /* \"#utility.yul\":3203:3204   */\n      0x00\n        /* \"#utility.yul\":3200:3201   */\n      dup1\n        /* \"#utility.yul\":3193:3205   */\n      revert\n        /* \"#utility.yul\":3144:3207   */\n    tag_180:\n        /* \"#utility.yul\":3091:3213   */\n      pop\n      jump\t// out\n        /* \"#utility.yul\":3219:3358   */\n    tag_121:\n        /* \"#utility.yul\":3265:3270   */\n      0x00\n        /* \"#utility.yul\":3303:3309   */\n      dup2\n        /* \"#utility.yul\":3290:3310   */\n      calldataload\n        /* \"#utility.yul\":3281:3310   */\n      swap1\n      pop\n        /* \"#utility.yul\":3319:3352   */\n      tag_182\n        /* \"#utility.yul\":3346:3351   */\n      dup2\n        /* \"#utility.yul\":3319:3352   */\n      tag_120\n      jump\t// in\n    tag_182:\n        /* \"#utility.yul\":3219:3358   */\n      swap3\n      swap2\n      pop\n      pop\n      jump\t// out\n        /* \"#utility.yul\":3364:3838   */\n    tag_31:\n        /* \"#utility.yul\":3432:3438   */\n      0x00\n        /* \"#utility.yul\":3440:3446   */\n      dup1\n        /* \"#utility.yul\":3489:3491   */\n      0x40\n        /* \"#utility.yul\":3477:3486   */\n      dup4\n        /* \"#utility.yul\":3468:3475   */\n      dup6\n        /* \"#utility.yul\":3464:3487   */\n      sub\n        /* \"#utility.yul\":3460:3492   */\n      slt\n        /* \"#utility.yul\":3457:3576   */\n      iszero\n      tag_184\n      jumpi\n        /* \"#utility.yul\":3495:3574   */\n      tag_185\n      tag_106\n      jump\t// in\n    tag_185:\n        /* \"#utility.yul\":3457:3576   */\n    tag_184:\n        /* \"#utility.yul\":3615:3616   */\n      0x00\n        /* \"#utility.yul\":3640:3693   */\n      tag_186\n        /* \"#utility.yul\":3685:3692   */\n      dup6\n        /* \"#utility.yul\":3676:3682   */\n      dup3\n        /* \"#utility.yul\":3665:3674   */\n      dup7\n        /* \"#utility.yul\":3661:3683   */\n      add\n        /* \"#utility.yul\":3640:3693   */\n      tag_111\n      jump\t// in\n    tag_186:\n        /* \"#utility.yul\":3630:3693   */\n      swap3\n      pop\n        /* \"#utility.yul\":3586:3703   */\n      pop\n        /* \"#utility.yul\":3742:3744   */\n      0x20\n        /* \"#utility.yul\":3768:3821   */\n      tag_187\n        /* \"#utility.yul\":3813:3820   */\n      dup6\n        /* \"#utility.yul\":3804:3810   */\n      dup3\n        /* \"#utility.yul\":3793:3802   */\n      dup7\n        /* \"#utility.yul\":3789:3811   */\n      add\n        /* \"#utility.yul\":3768:3821   */\n      tag_121\n      jump\t// in\n    tag_187:\n        /* \"#utility.yul\":3758:3821   */\n      swap2\n      pop\n        /* \"#utility.yul\":3713:3831   */\n      pop\n        /* \"#utility.yul\":3364:3838   */\n      swap3\n      pop\n      swap3\n      swap1\n      pop\n      jump\t// out\n        /* \"#utility.yul\":3844:4066   */\n    tag_36:\n        /* \"#utility.yul\":3937:3941   */\n      0x00\n        /* \"#utility.yul\":3975:3977   */\n      0x20\n        /* \"#utility.yul\":3964:3973   */\n      dup3\n        /* \"#utility.yul\":3960:3978   */\n      add\n        /* \"#utility.yul\":3952:3978   */\n      swap1\n      pop\n        /* \"#utility.yul\":3988:4059   */\n      tag_189\n        /* \"#utility.yul\":4056:4057   */\n      0x00\n        /* \"#utility.yul\":4045:4054   */\n      dup4\n        /* \"#utility.yul\":4041:4058   */\n      add\n        /* \"#utility.yul\":4032:4038   */\n      dup5\n        /* \"#utility.yul\":3988:4059   */\n      tag_113\n      jump\t// in\n    tag_189:\n        /* \"#utility.yul\":3844:4066   */\n      swap3\n      swap2\n      pop\n      pop\n      jump\t// out\n        /* \"#utility.yul\":4072:4546   */\n    tag_46:\n        /* \"#utility.yul\":4140:4146   */\n      0x00\n        /* \"#utility.yul\":4148:4154   */\n      dup1\n        /* \"#utility.yul\":4197:4199   */\n      0x40\n        /* \"#utility.yul\":4185:4194   */\n      dup4\n        /* \"#utility.yul\":4176:4183   */\n      dup6\n        /* \"#utility.yul\":4172:4195   */\n      sub\n        /* \"#utility.yul\":4168:4200   */\n      slt\n        /* \"#utility.yul\":4165:4284   */\n      iszero\n      tag_191\n      jumpi\n        /* \"#utility.yul\":4203:4282   */\n      tag_192\n      tag_106\n      jump\t// in\n    tag_192:\n        /* \"#utility.yul\":4165:4284   */\n    tag_191:\n        /* \"#utility.yul\":4323:4324   */\n      0x00\n        /* \"#utility.yul\":4348:4401   */\n      tag_193\n        /* \"#utility.yul\":4393:4400   */\n      dup6\n        /* \"#utility.yul\":4384:4390   */\n      dup3\n        /* \"#utility.yul\":4373:4382   */\n      dup7\n        /* \"#utility.yul\":4369:4391   */\n      add\n        /* \"#utility.yul\":4348:4401   */\n      tag_121\n      jump\t// in\n    tag_193:\n        /* \"#utility.yul\":4338:4401   */\n      swap3\n      pop\n        /* \"#utility.yul\":4294:4411   */\n      pop\n        /* \"#utility.yul\":4450:4452   */\n      0x20\n        /* \"#utility.yul\":4476:4529   */\n      tag_194\n        /* \"#utility.yul\":4521:4528   */\n      dup6\n        /* \"#utility.yul\":4512:4518   */\n      dup3\n        /* \"#utility.yul\":4501:4510   */\n      dup7\n        /* \"#utility.yul\":4497:4519   */\n      add\n        /* \"#utility.yul\":4476:4529   */\n      tag_121\n      jump\t// in\n    tag_194:\n        /* \"#utility.yul\":4466:4529   */\n      swap2\n      pop\n        /* \"#utility.yul\":4421:4539   */\n      pop\n        /* \"#utility.yul\":4072:4546   */\n      swap3\n      pop\n      swap3\n      swap1\n      pop\n      jump\t// out\n        /* \"#utility.yul\":4552:4721   */\n    tag_122:\n        /* \"#utility.yul\":4636:4647   */\n      0x00\n        /* \"#utility.yul\":4670:4676   */\n      dup3\n        /* \"#utility.yul\":4665:4668   */\n      dup3\n        /* \"#utility.yul\":4658:4677   */\n      mstore\n        /* \"#utility.yul\":4710:4714   */\n      0x20\n        /* \"#utility.yul\":4705:4708   */\n      dup3\n        /* \"#utility.yul\":4701:4715   */\n      add\n        /* \"#utility.yul\":4686:4715   */\n      swap1\n      pop\n        /* \"#utility.yul\":4552:4721   */\n      swap3\n      swap2\n      pop\n      pop\n      jump\t// out\n        /* \"#utility.yul\":4727:4888   */\n    tag_123:\n        /* \"#utility.yul\":4867:4880   */\n      0x4b686f6e6720636f206875000000000000000000000000000000000000000000\n        /* \"#utility.yul\":4863:4864   */\n      0x00\n        /* \"#utility.yul\":4855:4861   */\n      dup3\n        /* \"#utility.yul\":4851:4865   */\n      add\n        /* \"#utility.yul\":4844:4881   */\n      mstore\n        /* \"#utility.yul\":4727:4888   */\n      pop\n      jump\t// out\n        /* \"#utility.yul\":4894:5260   */\n    tag_124:\n        /* \"#utility.yul\":5036:5039   */\n      0x00\n        /* \"#utility.yul\":5057:5124   */\n      tag_198\n        /* \"#utility.yul\":5121:5123   */\n      0x0b\n        /* \"#utility.yul\":5116:5119   */\n      dup4\n        /* \"#utility.yul\":5057:5124   */\n      tag_122\n      jump\t// in\n    tag_198:\n        /* \"#utility.yul\":5050:5124   */\n      swap2\n      pop\n        /* \"#utility.yul\":5133:5226   */\n      tag_199\n        /* \"#utility.yul\":5222:5225   */\n      dup3\n        /* \"#utility.yul\":5133:5226   */\n      tag_123\n      jump\t// in\n    tag_199:\n        /* \"#utility.yul\":5251:5253   */\n      0x20\n        /* \"#utility.yul\":5246:5249   */\n      dup3\n        /* \"#utility.yul\":5242:5254   */\n      add\n        /* \"#utility.yul\":5235:5254   */\n      swap1\n      pop\n        /* \"#utility.yul\":4894:5260   */\n      swap2\n      swap1\n      pop\n      jump\t// out\n        /* \"#utility.yul\":5266:5685   */\n    tag_52:\n        /* \"#utility.yul\":5432:5436   */\n      0x00\n        /* \"#utility.yul\":5470:5472   */\n      0x20\n        /* \"#utility.yul\":5459:5468   */\n      dup3\n        /* \"#utility.yul\":5455:5473   */\n      add\n        /* \"#utility.yul\":5447:5473   */\n      swap1\n      pop\n        /* \"#utility.yul\":5519:5528   */\n      dup2\n        /* \"#utility.yul\":5513:5517   */\n      dup2\n        /* \"#utility.yul\":5509:5529   */\n      sub\n        /* \"#utility.yul\":5505:5506   */\n      0x00\n        /* \"#utility.yul\":5494:5503   */\n      dup4\n        /* \"#utility.yul\":5490:5507   */\n      add\n        /* \"#utility.yul\":5483:5530   */\n      mstore\n        /* \"#utility.yul\":5547:5678   */\n      tag_201\n        /* \"#utility.yul\":5673:5677   */\n      dup2\n        /* \"#utility.yul\":5547:5678   */\n      tag_124\n      jump\t// in\n    tag_201:\n        /* \"#utility.yul\":5539:5678   */\n      swap1\n      pop\n        /* \"#utility.yul\":5266:5685   */\n      swap2\n      swap1\n      pop\n      jump\t// out\n        /* \"#utility.yul\":5691:5853   */\n    tag_125:\n        /* \"#utility.yul\":5831:5845   */\n      0x436875612064656e2068616e0000000000000000000000000000000000000000\n        /* \"#utility.yul\":5827:5828   */\n      0x00\n        /* \"#utility.yul\":5819:5825   */\n      dup3\n        /* \"#utility.yul\":5815:5829   */\n      add\n        /* \"#utility.yul\":5808:5846   */\n      mstore\n        /* \"#utility.yul\":5691:5853   */\n      pop\n      jump\t// out\n        /* \"#utility.yul\":5859:6225   */\n    tag_126:\n        /* \"#utility.yul\":6001:6004   */\n      0x00\n        /* \"#utility.yul\":6022:6089   */\n      tag_204\n        /* \"#utility.yul\":6086:6088   */\n      0x0c\n        /* \"#utility.yul\":6081:6084   */\n      dup4\n        /* \"#utility.yul\":6022:6089   */\n      tag_122\n      jump\t// in\n    tag_204:\n        /* \"#utility.yul\":6015:6089   */\n      swap2\n      pop\n        /* \"#utility.yul\":6098:6191   */\n      tag_205\n        /* \"#utility.yul\":6187:6190   */\n      dup3\n        /* \"#utility.yul\":6098:6191   */\n      tag_125\n      jump\t// in\n    tag_205:\n        /* \"#utility.yul\":6216:6218   */\n      0x20\n        /* \"#utility.yul\":6211:6214   */\n      dup3\n        /* \"#utility.yul\":6207:6219   */\n      add\n        /* \"#utility.yul\":6200:6219   */\n      swap1\n      pop\n        /* \"#utility.yul\":5859:6225   */\n      swap2\n      swap1\n      pop\n      jump\t// out\n        /* \"#utility.yul\":6231:6650   */\n    tag_55:\n        /* \"#utility.yul\":6397:6401   */\n      0x00\n        /* \"#utility.yul\":6435:6437   */\n      0x20\n        /* \"#utility.yul\":6424:6433   */\n      dup3\n        /* \"#utility.yul\":6420:6438   */\n      add\n        /* \"#utility.yul\":6412:6438   */\n      swap1\n      pop\n        /* \"#utility.yul\":6484:6493   */\n      dup2\n        /* \"#utility.yul\":6478:6482   */\n      dup2\n        /* \"#utility.yul\":6474:6494   */\n      sub\n        /* \"#utility.yul\":6470:6471   */\n      0x00\n        /* \"#utility.yul\":6459:6468   */\n      dup4\n        /* \"#utility.yul\":6455:6472   */\n      add\n        /* \"#utility.yul\":6448:6495   */\n      mstore\n        /* \"#utility.yul\":6512:6643   */\n      tag_207\n        /* \"#utility.yul\":6638:6642   */\n      dup2\n        /* \"#utility.yul\":6512:6643   */\n      tag_126\n      jump\t// in\n    tag_207:\n        /* \"#utility.yul\":6504:6643   */\n      swap1\n      pop\n        /* \"#utility.yul\":6231:6650   */\n      swap2\n      swap1\n      pop\n      jump\t// out\n        /* \"#utility.yul\":6656:6836   */\n    tag_127:\n        /* \"#utility.yul\":6704:6781   */\n      0x4e487b7100000000000000000000000000000000000000000000000000000000\n        /* \"#utility.yul\":6701:6702   */\n      0x00\n        /* \"#utility.yul\":6694:6782   */\n      mstore\n        /* \"#utility.yul\":6801:6805   */\n      0x11\n        /* \"#utility.yul\":6798:6799   */\n      0x04\n        /* \"#utility.yul\":6791:6806   */\n      mstore\n        /* \"#utility.yul\":6825:6829   */\n      0x24\n        /* \"#utility.yul\":6822:6823   */\n      0x00\n        /* \"#utility.yul\":6815:6830   */\n      revert\n        /* \"#utility.yul\":6842:7033   */\n    tag_57:\n        /* \"#utility.yul\":6882:6885   */\n      0x00\n        /* \"#utility.yul\":6901:6921   */\n      tag_210\n        /* \"#utility.yul\":6919:6920   */\n      dup3\n        /* \"#utility.yul\":6901:6921   */\n      tag_112\n      jump\t// in\n    tag_210:\n        /* \"#utility.yul\":6896:6921   */\n      swap2\n      pop\n        /* \"#utility.yul\":6935:6955   */\n      tag_211\n        /* \"#utility.yul\":6953:6954   */\n      dup4\n        /* \"#utility.yul\":6935:6955   */\n      tag_112\n      jump\t// in\n    tag_211:\n        /* \"#utility.yul\":6930:6955   */\n      swap3\n      pop\n        /* \"#utility.yul\":6978:6979   */\n      dup3\n        /* \"#utility.yul\":6975:6976   */\n      dup3\n        /* \"#utility.yul\":6971:6980   */\n      add\n        /* \"#utility.yul\":6964:6980   */\n      swap1\n      pop\n        /* \"#utility.yul\":6999:7002   */\n      dup1\n        /* \"#utility.yul\":6996:6997   */\n      dup3\n        /* \"#utility.yul\":6993:7003   */\n      gt\n        /* \"#utility.yul\":6990:7026   */\n      iszero\n      tag_212\n      jumpi\n        /* \"#utility.yul\":7006:7024   */\n      tag_213\n      tag_127\n      jump\t// in\n    tag_213:\n        /* \"#utility.yul\":6990:7026   */\n    tag_212:\n        /* \"#utility.yul\":6842:7033   */\n      swap3\n      swap2\n      pop\n      pop\n      jump\t// out\n        /* \"#utility.yul\":7039:7371   */\n    tag_59:\n        /* \"#utility.yul\":7160:7164   */\n      0x00\n        /* \"#utility.yul\":7198:7200   */\n      0x40\n        /* \"#utility.yul\":7187:7196   */\n      dup3\n        /* \"#utility.yul\":7183:7201   */\n      add\n        /* \"#utility.yul\":7175:7201   */\n      swap1\n      pop\n        /* \"#utility.yul\":7211:7282   */\n      tag_215\n        /* \"#utility.yul\":7279:7280   */\n      0x00\n        /* \"#utility.yul\":7268:7277   */\n      dup4\n        /* \"#utility.yul\":7264:7281   */\n      add\n        /* \"#utility.yul\":7255:7261   */\n      dup6\n        /* \"#utility.yul\":7211:7282   */\n      tag_119\n      jump\t// in\n    tag_215:\n        /* \"#utility.yul\":7292:7364   */\n      tag_216\n        /* \"#utility.yul\":7360:7362   */\n      0x20\n        /* \"#utility.yul\":7349:7358   */\n      dup4\n        /* \"#utility.yul\":7345:7363   */\n      add\n        /* \"#utility.yul\":7336:7342   */\n      dup5\n        /* \"#utility.yul\":7292:7364   */\n      tag_113\n      jump\t// in\n    tag_216:\n        /* \"#utility.yul\":7039:7371   */\n      swap4\n      swap3\n      pop\n      pop\n      pop\n      jump\t// out\n        /* \"#utility.yul\":7377:7467   */\n    tag_128:\n        /* \"#utility.yul\":7411:7418   */\n      0x00\n        /* \"#utility.yul\":7454:7459   */\n      dup2\n        /* \"#utility.yul\":7447:7460   */\n      iszero\n        /* \"#utility.yul\":7440:7461   */\n      iszero\n        /* \"#utility.yul\":7429:7461   */\n      swap1\n      pop\n        /* \"#utility.yul\":7377:7467   */\n      swap2\n      swap1\n      pop\n      jump\t// out\n        /* \"#utility.yul\":7473:7589   */\n    tag_129:\n        /* \"#utility.yul\":7543:7564   */\n      tag_219\n        /* \"#utility.yul\":7558:7563   */\n      dup2\n        /* \"#utility.yul\":7543:7564   */\n      tag_128\n      jump\t// in\n    tag_219:\n        /* \"#utility.yul\":7536:7541   */\n      dup2\n        /* \"#utility.yul\":7533:7565   */\n      eq\n        /* \"#utility.yul\":7523:7583   */\n      tag_220\n      jumpi\n        /* \"#utility.yul\":7579:7580   */\n      0x00\n        /* \"#utility.yul\":7576:7577   */\n      dup1\n        /* \"#utility.yul\":7569:7581   */\n      revert\n        /* \"#utility.yul\":7523:7583   */\n    tag_220:\n        /* \"#utility.yul\":7473:7589   */\n      pop\n      jump\t// out\n        /* \"#utility.yul\":7595:7732   */\n    tag_130:\n        /* \"#utility.yul\":7649:7654   */\n      0x00\n        /* \"#utility.yul\":7680:7686   */\n      dup2\n        /* \"#utility.yul\":7674:7687   */\n      mload\n        /* \"#utility.yul\":7665:7687   */\n      swap1\n      pop\n        /* \"#utility.yul\":7696:7726   */\n      tag_222\n        /* \"#utility.yul\":7720:7725   */\n      dup2\n        /* \"#utility.yul\":7696:7726   */\n      tag_129\n      jump\t// in\n    tag_222:\n        /* \"#utility.yul\":7595:7732   */\n      swap3\n      swap2\n      pop\n      pop\n      jump\t// out\n        /* \"#utility.yul\":7738:8083   */\n    tag_63:\n        /* \"#utility.yul\":7805:7811   */\n      0x00\n        /* \"#utility.yul\":7854:7856   */\n      0x20\n        /* \"#utility.yul\":7842:7851   */\n      dup3\n        /* \"#utility.yul\":7833:7840   */\n      dup5\n        /* \"#utility.yul\":7829:7852   */\n      sub\n        /* \"#utility.yul\":7825:7857   */\n      slt\n        /* \"#utility.yul\":7822:7941   */\n      iszero\n      tag_224\n      jumpi\n        /* \"#utility.yul\":7860:7939   */\n      tag_225\n      tag_106\n      jump\t// in\n    tag_225:\n        /* \"#utility.yul\":7822:7941   */\n    tag_224:\n        /* \"#utility.yul\":7980:7981   */\n      0x00\n        /* \"#utility.yul\":8005:8066   */\n      tag_226\n        /* \"#utility.yul\":8058:8065   */\n      dup5\n        /* \"#utility.yul\":8049:8055   */\n      dup3\n        /* \"#utility.yul\":8038:8047   */\n      dup6\n        /* \"#utility.yul\":8034:8056   */\n      add\n        /* \"#utility.yul\":8005:8066   */\n      tag_130\n      jump\t// in\n    tag_226:\n        /* \"#utility.yul\":7995:8066   */\n      swap2\n      pop\n        /* \"#utility.yul\":7951:8076   */\n      pop\n        /* \"#utility.yul\":7738:8083   */\n      swap3\n      swap2\n      pop\n      pop\n      jump\t// out\n        /* \"#utility.yul\":8089:8250   */\n    tag_131:\n        /* \"#utility.yul\":8229:8242   */\n      0x536f207469656e203e2030000000000000000000000000000000000000000000\n        /* \"#utility.yul\":8225:8226   */\n      0x00\n        /* \"#utility.yul\":8217:8223   */\n      dup3\n        /* \"#utility.yul\":8213:8227   */\n      add\n        /* \"#utility.yul\":8206:8243   */\n      mstore\n        /* \"#utility.yul\":8089:8250   */\n      pop\n      jump\t// out\n        /* \"#utility.yul\":8256:8622   */\n    tag_132:\n        /* \"#utility.yul\":8398:8401   */\n      0x00\n        /* \"#utility.yul\":8419:8486   */\n      tag_229\n        /* \"#utility.yul\":8483:8485   */\n      0x0b\n        /* \"#utility.yul\":8478:8481   */\n      dup4\n        /* \"#utility.yul\":8419:8486   */\n      tag_122\n      jump\t// in\n    tag_229:\n        /* \"#utility.yul\":8412:8486   */\n      swap2\n      pop\n        /* \"#utility.yul\":8495:8588   */\n      tag_230\n        /* \"#utility.yul\":8584:8587   */\n      dup3\n        /* \"#utility.yul\":8495:8588   */\n      tag_131\n      jump\t// in\n    tag_230:\n        /* \"#utility.yul\":8613:8615   */\n      0x20\n        /* \"#utility.yul\":8608:8611   */\n      dup3\n        /* \"#utility.yul\":8604:8616   */\n      add\n        /* \"#utility.yul\":8597:8616   */\n      swap1\n      pop\n        /* \"#utility.yul\":8256:8622   */\n      swap2\n      swap1\n      pop\n      jump\t// out\n        /* \"#utility.yul\":8628:9047   */\n    tag_68:\n        /* \"#utility.yul\":8794:8798   */\n      0x00\n        /* \"#utility.yul\":8832:8834   */\n      0x20\n        /* \"#utility.yul\":8821:8830   */\n      dup3\n        /* \"#utility.yul\":8817:8835   */\n      add\n        /* \"#utility.yul\":8809:8835   */\n      swap1\n      pop\n        /* \"#utility.yul\":8881:8890   */\n      dup2\n        /* \"#utility.yul\":8875:8879   */\n      dup2\n        /* \"#utility.yul\":8871:8891   */\n      sub\n        /* \"#utility.yul\":8867:8868   */\n      0x00\n        /* \"#utility.yul\":8856:8865   */\n      dup4\n        /* \"#utility.yul\":8852:8869   */\n      add\n        /* \"#utility.yul\":8845:8892   */\n      mstore\n        /* \"#utility.yul\":8909:9040   */\n      tag_232\n        /* \"#utility.yul\":9035:9039   */\n      dup2\n        /* \"#utility.yul\":8909:9040   */\n      tag_132\n      jump\t// in\n    tag_232:\n        /* \"#utility.yul\":8901:9040   */\n      swap1\n      pop\n        /* \"#utility.yul\":8628:9047   */\n      swap2\n      swap1\n      pop\n      jump\t// out\n        /* \"#utility.yul\":9053:9463   */\n    tag_72:\n        /* \"#utility.yul\":9093:9100   */\n      0x00\n        /* \"#utility.yul\":9116:9136   */\n      tag_234\n        /* \"#utility.yul\":9134:9135   */\n      dup3\n        /* \"#utility.yul\":9116:9136   */\n      tag_112\n      jump\t// in\n    tag_234:\n        /* \"#utility.yul\":9111:9136   */\n      swap2\n      pop\n        /* \"#utility.yul\":9150:9170   */\n      tag_235\n        /* \"#utility.yul\":9168:9169   */\n      dup4\n        /* \"#utility.yul\":9150:9170   */\n      tag_112\n      jump\t// in\n    tag_235:\n        /* \"#utility.yul\":9145:9170   */\n      swap3\n      pop\n        /* \"#utility.yul\":9205:9206   */\n      dup3\n        /* \"#utility.yul\":9202:9203   */\n      dup3\n        /* \"#utility.yul\":9198:9207   */\n      mul\n        /* \"#utility.yul\":9227:9257   */\n      tag_236\n        /* \"#utility.yul\":9245:9256   */\n      dup2\n        /* \"#utility.yul\":9227:9257   */\n      tag_112\n      jump\t// in\n    tag_236:\n        /* \"#utility.yul\":9216:9257   */\n      swap2\n      pop\n        /* \"#utility.yul\":9406:9407   */\n      dup3\n        /* \"#utility.yul\":9397:9404   */\n      dup3\n        /* \"#utility.yul\":9393:9408   */\n      div\n        /* \"#utility.yul\":9390:9391   */\n      dup5\n        /* \"#utility.yul\":9387:9409   */\n      eq\n        /* \"#utility.yul\":9367:9368   */\n      dup4\n        /* \"#utility.yul\":9360:9369   */\n      iszero\n        /* \"#utility.yul\":9340:9423   */\n      or\n        /* \"#utility.yul\":9317:9456   */\n      tag_237\n      jumpi\n        /* \"#utility.yul\":9436:9454   */\n      tag_238\n      tag_127\n      jump\t// in\n    tag_238:\n        /* \"#utility.yul\":9317:9456   */\n    tag_237:\n        /* \"#utility.yul\":9101:9463   */\n      pop\n        /* \"#utility.yul\":9053:9463   */\n      swap3\n      swap2\n      pop\n      pop\n      jump\t// out\n        /* \"#utility.yul\":9469:9649   */\n    tag_133:\n        /* \"#utility.yul\":9517:9594   */\n      0x4e487b7100000000000000000000000000000000000000000000000000000000\n        /* \"#utility.yul\":9514:9515   */\n      0x00\n        /* \"#utility.yul\":9507:9595   */\n      mstore\n        /* \"#utility.yul\":9614:9618   */\n      0x12\n        /* \"#utility.yul\":9611:9612   */\n      0x04\n        /* \"#utility.yul\":9604:9619   */\n      mstore\n        /* \"#utility.yul\":9638:9642   */\n      0x24\n        /* \"#utility.yul\":9635:9636   */\n      0x00\n        /* \"#utility.yul\":9628:9643   */\n      revert\n        /* \"#utility.yul\":9655:9840   */\n    tag_74:\n        /* \"#utility.yul\":9695:9696   */\n      0x00\n        /* \"#utility.yul\":9712:9732   */\n      tag_241\n        /* \"#utility.yul\":9730:9731   */\n      dup3\n        /* \"#utility.yul\":9712:9732   */\n      tag_112\n      jump\t// in\n    tag_241:\n        /* \"#utility.yul\":9707:9732   */\n      swap2\n      pop\n        /* \"#utility.yul\":9746:9766   */\n      tag_242\n        /* \"#utility.yul\":9764:9765   */\n      dup4\n        /* \"#utility.yul\":9746:9766   */\n      tag_112\n      jump\t// in\n    tag_242:\n        /* \"#utility.yul\":9741:9766   */\n      swap3\n      pop\n        /* \"#utility.yul\":9785:9786   */\n      dup3\n        /* \"#utility.yul\":9775:9810   */\n      tag_243\n      jumpi\n        /* \"#utility.yul\":9790:9808   */\n      tag_244\n      tag_133\n      jump\t// in\n    tag_244:\n        /* \"#utility.yul\":9775:9810   */\n    tag_243:\n        /* \"#utility.yul\":9832:9833   */\n      dup3\n        /* \"#utility.yul\":9829:9830   */\n      dup3\n        /* \"#utility.yul\":9825:9834   */\n      div\n        /* \"#utility.yul\":9820:9834   */\n      swap1\n      pop\n        /* \"#utility.yul\":9655:9840   */\n      swap3\n      swap2\n      pop\n      pop\n      jump\t// out\n        /* \"#utility.yul\":9846:10040   */\n    tag_76:\n        /* \"#utility.yul\":9886:9890   */\n      0x00\n        /* \"#utility.yul\":9906:9926   */\n      tag_246\n        /* \"#utility.yul\":9924:9925   */\n      dup3\n        /* \"#utility.yul\":9906:9926   */\n      tag_112\n      jump\t// in\n    tag_246:\n        /* \"#utility.yul\":9901:9926   */\n      swap2\n      pop\n        /* \"#utility.yul\":9940:9960   */\n      tag_247\n        /* \"#utility.yul\":9958:9959   */\n      dup4\n        /* \"#utility.yul\":9940:9960   */\n      tag_112\n      jump\t// in\n    tag_247:\n        /* \"#utility.yul\":9935:9960   */\n      swap3\n      pop\n        /* \"#utility.yul\":9984:9985   */\n      dup3\n        /* \"#utility.yul\":9981:9982   */\n      dup3\n        /* \"#utility.yul\":9977:9986   */\n      sub\n        /* \"#utility.yul\":9969:9986   */\n      swap1\n      pop\n        /* \"#utility.yul\":10008:10009   */\n      dup2\n        /* \"#utility.yul\":10002:10006   */\n      dup2\n        /* \"#utility.yul\":9999:10010   */\n      gt\n        /* \"#utility.yul\":9996:10033   */\n      iszero\n      tag_248\n      jumpi\n        /* \"#utility.yul\":10013:10031   */\n      tag_249\n      tag_127\n      jump\t// in\n    tag_249:\n        /* \"#utility.yul\":9996:10033   */\n    tag_248:\n        /* \"#utility.yul\":9846:10040   */\n      swap3\n      swap2\n      pop\n      pop\n      jump\t// out\n        /* \"#utility.yul\":10046:10488   */\n    tag_78:\n        /* \"#utility.yul\":10195:10199   */\n      0x00\n        /* \"#utility.yul\":10233:10235   */\n      0x60\n        /* \"#utility.yul\":10222:10231   */\n      dup3\n        /* \"#utility.yul\":10218:10236   */\n      add\n        /* \"#utility.yul\":10210:10236   */\n      swap1\n      pop\n        /* \"#utility.yul\":10246:10317   */\n      tag_251\n        /* \"#utility.yul\":10314:10315   */\n      0x00\n        /* \"#utility.yul\":10303:10312   */\n      dup4\n        /* \"#utility.yul\":10299:10316   */\n      add\n        /* \"#utility.yul\":10290:10296   */\n      dup7\n        /* \"#utility.yul\":10246:10317   */\n      tag_119\n      jump\t// in\n    tag_251:\n        /* \"#utility.yul\":10327:10399   */\n      tag_252\n        /* \"#utility.yul\":10395:10397   */\n      0x20\n        /* \"#utility.yul\":10384:10393   */\n      dup4\n        /* \"#utility.yul\":10380:10398   */\n      add\n        /* \"#utility.yul\":10371:10377   */\n      dup6\n        /* \"#utility.yul\":10327:10399   */\n      tag_119\n      jump\t// in\n    tag_252:\n        /* \"#utility.yul\":10409:10481   */\n      tag_253\n        /* \"#utility.yul\":10477:10479   */\n      0x40\n        /* \"#utility.yul\":10466:10475   */\n      dup4\n        /* \"#utility.yul\":10462:10480   */\n      add\n        /* \"#utility.yul\":10453:10459   */\n      dup5\n        /* \"#utility.yul\":10409:10481   */\n      tag_113\n      jump\t// in\n    tag_253:\n        /* \"#utility.yul\":10046:10488   */\n      swap5\n      swap4\n      pop\n      pop\n      pop\n      pop\n      jump\t// out\n        /* \"#utility.yul\":10494:10658   */\n    tag_134:\n        /* \"#utility.yul\":10634:10650   */\n      0x4974206e6861742037206e676179000000000000000000000000000000000000\n        /* \"#utility.yul\":10630:10631   */\n      0x00\n        /* \"#utility.yul\":10622:10628   */\n      dup3\n        /* \"#utility.yul\":10618:10632   */\n      add\n        /* \"#utility.yul\":10611:10651   */\n      mstore\n        /* \"#utility.yul\":10494:10658   */\n      pop\n      jump\t// out\n        /* \"#utility.yul\":10664:11030   */\n    tag_135:\n        /* \"#utility.yul\":10806:10809   */\n      0x00\n        /* \"#utility.yul\":10827:10894   */\n      tag_256\n        /* \"#utility.yul\":10891:10893   */\n      0x0e\n        /* \"#utility.yul\":10886:10889   */\n      dup4\n        /* \"#utility.yul\":10827:10894   */\n      tag_122\n      jump\t// in\n    tag_256:\n        /* \"#utility.yul\":10820:10894   */\n      swap2\n      pop\n        /* \"#utility.yul\":10903:10996   */\n      tag_257\n        /* \"#utility.yul\":10992:10995   */\n      dup3\n        /* \"#utility.yul\":10903:10996   */\n      tag_134\n      jump\t// in\n    tag_257:\n        /* \"#utility.yul\":11021:11023   */\n      0x20\n        /* \"#utility.yul\":11016:11019   */\n      dup3\n        /* \"#utility.yul\":11012:11024   */\n      add\n        /* \"#utility.yul\":11005:11024   */\n      swap1\n      pop\n        /* \"#utility.yul\":10664:11030   */\n      swap2\n      swap1\n      pop\n      jump\t// out\n        /* \"#utility.yul\":11036:11455   */\n    tag_91:\n        /* \"#utility.yul\":11202:11206   */\n      0x00\n        /* \"#utility.yul\":11240:11242   */\n      0x20\n        /* \"#utility.yul\":11229:11238   */\n      dup3\n        /* \"#utility.yul\":11225:11243   */\n      add\n        /* \"#utility.yul\":11217:11243   */\n      swap1\n      pop\n        /* \"#utility.yul\":11289:11298   */\n      dup2\n        /* \"#utility.yul\":11283:11287   */\n      dup2\n        /* \"#utility.yul\":11279:11299   */\n      sub\n        /* \"#utility.yul\":11275:11276   */\n      0x00\n        /* \"#utility.yul\":11264:11273   */\n      dup4\n        /* \"#utility.yul\":11260:11277   */\n      add\n        /* \"#utility.yul\":11253:11300   */\n      mstore\n        /* \"#utility.yul\":11317:11448   */\n      tag_259\n        /* \"#utility.yul\":11443:11447   */\n      dup2\n        /* \"#utility.yul\":11317:11448   */\n      tag_135\n      jump\t// in\n    tag_259:\n        /* \"#utility.yul\":11309:11448   */\n      swap1\n      pop\n        /* \"#utility.yul\":11036:11455   */\n      swap2\n      swap1\n      pop\n      jump\t// out\n        /* \"#utility.yul\":11461:11619   */\n    tag_136:\n        /* \"#utility.yul\":11601:11611   */\n      0x446120636f206875000000000000000000000000000000000000000000000000\n        /* \"#utility.yul\":11597:11598   */\n      0x00\n        /* \"#utility.yul\":11589:11595   */\n      dup3\n        /* \"#utility.yul\":11585:11599   */\n      add\n        /* \"#utility.yul\":11578:11612   */\n      mstore\n        /* \"#utility.yul\":11461:11619   */\n      pop\n      jump\t// out\n        /* \"#utility.yul\":11625:11990   */\n    tag_137:\n        /* \"#utility.yul\":11767:11770   */\n      0x00\n        /* \"#utility.yul\":11788:11854   */\n      tag_262\n        /* \"#utility.yul\":11852:11853   */\n      0x08\n        /* \"#utility.yul\":11847:11850   */\n      dup4\n        /* \"#utility.yul\":11788:11854   */\n      tag_122\n      jump\t// in\n    tag_262:\n        /* \"#utility.yul\":11781:11854   */\n      swap2\n      pop\n        /* \"#utility.yul\":11863:11956   */\n      tag_263\n        /* \"#utility.yul\":11952:11955   */\n      dup3\n        /* \"#utility.yul\":11863:11956   */\n      tag_136\n      jump\t// in\n    tag_263:\n        /* \"#utility.yul\":11981:11983   */\n      0x20\n        /* \"#utility.yul\":11976:11979   */\n      dup3\n        /* \"#utility.yul\":11972:11984   */\n      add\n        /* \"#utility.yul\":11965:11984   */\n      swap1\n      pop\n        /* \"#utility.yul\":11625:11990   */\n      swap2\n      swap1\n      pop\n      jump\t// out\n        /* \"#utility.yul\":11996:12415   */\n    tag_96:\n        /* \"#utility.yul\":12162:12166   */\n      0x00\n        /* \"#utility.yul\":12200:12202   */\n      0x20\n        /* \"#utility.yul\":12189:12198   */\n      dup3\n        /* \"#utility.yul\":12185:12203   */\n      add\n        /* \"#utility.yul\":12177:12203   */\n      swap1\n      pop\n        /* \"#utility.yul\":12249:12258   */\n      dup2\n        /* \"#utility.yul\":12243:12247   */\n      dup2\n        /* \"#utility.yul\":12239:12259   */\n      sub\n        /* \"#utility.yul\":12235:12236   */\n      0x00\n        /* \"#utility.yul\":12224:12233   */\n      dup4\n        /* \"#utility.yul\":12220:12237   */\n      add\n        /* \"#utility.yul\":12213:12260   */\n      mstore\n        /* \"#utility.yul\":12277:12408   */\n      tag_265\n        /* \"#utility.yul\":12403:12407   */\n      dup2\n        /* \"#utility.yul\":12277:12408   */\n      tag_137\n      jump\t// in\n    tag_265:\n        /* \"#utility.yul\":12269:12408   */\n      swap1\n      pop\n        /* \"#utility.yul\":11996:12415   */\n      swap2\n      swap1\n      pop\n      jump\t// out\n        /* \"#utility.yul\":12421:12753   */\n    tag_104:\n        /* \"#utility.yul\":12542:12546   */\n      0x00\n        /* \"#utility.yul\":12580:12582   */\n      0x40\n        /* \"#utility.yul\":12569:12578   */\n      dup3\n        /* \"#utility.yul\":12565:12583   */\n      add\n        /* \"#utility.yul\":12557:12583   */\n      swap1\n      pop\n        /* \"#utility.yul\":12593:12664   */\n      tag_267\n        /* \"#utility.yul\":12661:12662   */\n      0x00\n        /* \"#utility.yul\":12650:12659   */\n      dup4\n        /* \"#utility.yul\":12646:12663   */\n      add\n        /* \"#utility.yul\":12637:12643   */\n      dup6\n        /* \"#utility.yul\":12593:12664   */\n      tag_113\n      jump\t// in\n    tag_267:\n        /* \"#utility.yul\":12674:12746   */\n      tag_268\n        /* \"#utility.yul\":12742:12744   */\n      0x20\n        /* \"#utility.yul\":12731:12740   */\n      dup4\n        /* \"#utility.yul\":12727:12745   */\n      add\n        /* \"#utility.yul\":12718:12724   */\n      dup5\n        /* \"#utility.yul\":12674:12746   */\n      tag_113\n      jump\t// in\n    tag_268:\n        /* \"#utility.yul\":12421:12753   */\n      swap4\n      swap3\n      pop\n      pop\n      pop\n      jump\t// out\n\n    auxdata: 0xa26469706673582212208f773a61dc195c1e627d4f2c950f938c9e537f86a4041ffeed3b30aa9a51366564736f6c63430008180033\n}\n",
				"bytecode": {
					"linkReferences": {},
					"object": "60a060405234801562000010575f80fd5b50604051620011f1380380620011f1833981810160405281019062000036919062000117565b8173ffffffffffffffffffffffffffffffffffffffff1660808173ffffffffffffffffffffffffffffffffffffffff16815250508060015f6101000a81548173ffffffffffffffffffffffffffffffffffffffff021916908373ffffffffffffffffffffffffffffffffffffffff16021790555050506200015c565b5f80fd5b5f73ffffffffffffffffffffffffffffffffffffffff82169050919050565b5f620000e182620000b6565b9050919050565b620000f381620000d5565b8114620000fe575f80fd5b50565b5f815190506200011181620000e8565b92915050565b5f806040838503121562000130576200012f620000b2565b5b5f6200013f8582860162000101565b9250506020620001528582860162000101565b9150509250929050565b608051611060620001915f395f818161023b01528181610393015281816105980152818161065701526108b401526110605ff3fe608060405234801561000f575f80fd5b5060043610610091575f3560e01c806361d0e43a1161006457806361d0e43a1461010d5780639d24280014610129578063a332a47c14610147578063a622ee7c14610165578063e5fbab851461019757610091565b80630709df45146100955780631fccf672146100c75780633ccfd60b146100e557806361d027b3146100ef575b5f80fd5b6100af60048036038101906100aa9190610a2b565b6101b3565b6040516100be93929190610a6e565b60405180910390f35b6100cf610239565b6040516100dc9190610afe565b60405180910390f35b6100ed61025d565b005b6100f761047f565b6040516101049190610b26565b60405180910390f35b61012760048036038101906101229190610b69565b6104a4565b005b610131610779565b60405161013e9190610ba7565b60405180910390f35b61014f61077e565b60405161015c9190610ba7565b60405180910390f35b61017f600480360381019061017a9190610a2b565b610783565b60405161018e93929190610a6e565b60405180910390f35b6101b160048036038101906101ac9190610bc0565b6107a8565b005b5f805f805f808673ffffffffffffffffffffffffffffffffffffffff1673ffffffffffffffffffffffffffffffffffffffff1681526020019081526020015f206040518060600160405290815f8201548152602001600182015481526020016002820154815250509050805f015181602001518260400151935093509350509193909250565b7f000000000000000000000000000000000000000000000000000000000000000081565b5f805f3373ffffffffffffffffffffffffffffffffffffffff1673ffffffffffffffffffffffffffffffffffffffff1681526020019081526020015f2090505f815f0154116102e1576040517f08c379a00000000000000000000000000000000000000000000000000000000081526004016102d890610c58565b60405180910390fd5b8060010154421015610328576040517f08c379a000000000000000000000000000000000000000000000000000000000815260040161031f90610cc0565b60405180910390fd5b5f8160020154825f015461033c9190610d0b565b90505f803373ffffffffffffffffffffffffffffffffffffffff1673ffffffffffffffffffffffffffffffffffffffff1681526020019081526020015f205f8082015f9055600182015f9055600282015f905550507f000000000000000000000000000000000000000000000000000000000000000073ffffffffffffffffffffffffffffffffffffffff1663a9059cbb33836040518363ffffffff1660e01b81526004016103ec929190610d3e565b6020604051808303815f875af1158015610408573d5f803e3d5ffd5b505050506040513d601f19601f8201168201806040525081019061042c9190610d9a565b503373ffffffffffffffffffffffffffffffffffffffff167f7084f5476618d8e60b11ef0d7d3f06914655adb8793e28ff7f018d4c76d505d5826040516104739190610ba7565b60405180910390a25050565b60015f9054906101000a900473ffffffffffffffffffffffffffffffffffffffff1681565b5f81116104e6576040517f08c379a00000000000000000000000000000000000000000000000000000000081526004016104dd90610e0f565b60405180910390fd5b5f805f8473ffffffffffffffffffffffffffffffffffffffff1673ffffffffffffffffffffffffffffffffffffffff1681526020019081526020015f2090505f815f01541161056a576040517f08c379a000000000000000000000000000000000000000000000000000000000815260040161056190610c58565b60405180910390fd5b5f61271060328461057b9190610e2d565b6105859190610e9b565b90505f81846105949190610ecb565b90507f000000000000000000000000000000000000000000000000000000000000000073ffffffffffffffffffffffffffffffffffffffff166323b872dd3360015f9054906101000a900473ffffffffffffffffffffffffffffffffffffffff16856040518463ffffffff1660e01b815260040161061493929190610efe565b6020604051808303815f875af1158015610630573d5f803e3d5ffd5b505050506040513d601f19601f820116820180604052508101906106549190610d9a565b507f000000000000000000000000000000000000000000000000000000000000000073ffffffffffffffffffffffffffffffffffffffff166323b872dd3330846040518463ffffffff1660e01b81526004016106b293929190610efe565b6020604051808303815f875af11580156106ce573d5f803e3d5ffd5b505050506040513d601f19601f820116820180604052508101906106f29190610d9a565b5080836002015f8282546107069190610d0b565b925050819055508473ffffffffffffffffffffffffffffffffffffffff163373ffffffffffffffffffffffffffffffffffffffff167f5bc277f123189e58865edca1ddf0e9c8a4252cf0d97cdc8bbd84d6278655124e8360405161076a9190610ba7565b60405180910390a35050505050565b600781565b603281565b5f602052805f5260405f205f91509050805f0154908060010154908060020154905083565b60078110156107ec576040517f08c379a00000000000000000000000000000000000000000000000000000000081526004016107e390610f7d565b60405180910390fd5b5f821161082e576040517f08c379a000000000000000000000000000000000000000000000000000000000815260040161082590610e0f565b60405180910390fd5b5f805f3373ffffffffffffffffffffffffffffffffffffffff1673ffffffffffffffffffffffffffffffffffffffff1681526020019081526020015f2090505f815f0154146108b2576040517f08c379a00000000000000000000000000000000000000000000000000000000081526004016108a990610fe5565b60405180910390fd5b7f000000000000000000000000000000000000000000000000000000000000000073ffffffffffffffffffffffffffffffffffffffff166323b872dd3330866040518463ffffffff1660e01b815260040161090f93929190610efe565b6020604051808303815f875af115801561092b573d5f803e3d5ffd5b505050506040513d601f19601f8201168201806040525081019061094f9190610d9a565b5082815f0181905550601e826109659190610e2d565b426109709190610d0b565b81600101819055503373ffffffffffffffffffffffffffffffffffffffff167f73a19dd210f1a7f902193214c0ee91dd35ee5b4d920cba8d519eca65a7b488ca84846040516109c0929190611003565b60405180910390a2505050565b5f80fd5b5f73ffffffffffffffffffffffffffffffffffffffff82169050919050565b5f6109fa826109d1565b9050919050565b610a0a816109f0565b8114610a14575f80fd5b50565b5f81359050610a2581610a01565b92915050565b5f60208284031215610a4057610a3f6109cd565b5b5f610a4d84828501610a17565b91505092915050565b5f819050919050565b610a6881610a56565b82525050565b5f606082019050610a815f830186610a5f565b610a8e6020830185610a5f565b610a9b6040830184610a5f565b949350505050565b5f819050919050565b5f610ac6610ac1610abc846109d1565b610aa3565b6109d1565b9050919050565b5f610ad782610aac565b9050919050565b5f610ae882610acd565b9050919050565b610af881610ade565b82525050565b5f602082019050610b115f830184610aef565b92915050565b610b20816109f0565b82525050565b5f602082019050610b395f830184610b17565b92915050565b610b4881610a56565b8114610b52575f80fd5b50565b5f81359050610b6381610b3f565b92915050565b5f8060408385031215610b7f57610b7e6109cd565b5b5f610b8c85828601610a17565b9250506020610b9d85828601610b55565b9150509250929050565b5f602082019050610bba5f830184610a5f565b92915050565b5f8060408385031215610bd657610bd56109cd565b5b5f610be385828601610b55565b9250506020610bf485828601610b55565b9150509250929050565b5f82825260208201905092915050565b7f4b686f6e6720636f2068750000000000000000000000000000000000000000005f82015250565b5f610c42600b83610bfe565b9150610c4d82610c0e565b602082019050919050565b5f6020820190508181035f830152610c6f81610c36565b9050919050565b7f436875612064656e2068616e00000000000000000000000000000000000000005f82015250565b5f610caa600c83610bfe565b9150610cb582610c76565b602082019050919050565b5f6020820190508181035f830152610cd781610c9e565b9050919050565b7f4e487b71000000000000000000000000000000000000000000000000000000005f52601160045260245ffd5b5f610d1582610a56565b9150610d2083610a56565b9250828201905080821115610d3857610d37610cde565b5b92915050565b5f604082019050610d515f830185610b17565b610d5e6020830184610a5f565b9392505050565b5f8115159050919050565b610d7981610d65565b8114610d83575f80fd5b50565b5f81519050610d9481610d70565b92915050565b5f60208284031215610daf57610dae6109cd565b5b5f610dbc84828501610d86565b91505092915050565b7f536f207469656e203e20300000000000000000000000000000000000000000005f82015250565b5f610df9600b83610bfe565b9150610e0482610dc5565b602082019050919050565b5f6020820190508181035f830152610e2681610ded565b9050919050565b5f610e3782610a56565b9150610e4283610a56565b9250828202610e5081610a56565b91508282048414831517610e6757610e66610cde565b5b5092915050565b7f4e487b71000000000000000000000000000000000000000000000000000000005f52601260045260245ffd5b5f610ea582610a56565b9150610eb083610a56565b925082610ec057610ebf610e6e565b5b828204905092915050565b5f610ed582610a56565b9150610ee083610a56565b9250828203905081811115610ef857610ef7610cde565b5b92915050565b5f606082019050610f115f830186610b17565b610f1e6020830185610b17565b610f2b6040830184610a5f565b949350505050565b7f4974206e6861742037206e6761790000000000000000000000000000000000005f82015250565b5f610f67600e83610bfe565b9150610f7282610f33565b602082019050919050565b5f6020820190508181035f830152610f9481610f5b565b9050919050565b7f446120636f2068750000000000000000000000000000000000000000000000005f82015250565b5f610fcf600883610bfe565b9150610fda82610f9b565b602082019050919050565b5f6020820190508181035f830152610ffc81610fc3565b9050919050565b5f6040820190506110165f830185610a5f565b6110236020830184610a5f565b939250505056fea26469706673582212208f773a61dc195c1e627d4f2c950f938c9e537f86a4041ffeed3b30aa9a51366564736f6c63430008180033",
					"opcodes": "PUSH1 0xA0 PUSH1 0x40 MSTORE CALLVALUE DUP1 ISZERO PUSH3 0x10 JUMPI PUSH0 DUP1 REVERT JUMPDEST POP PUSH1 0x40 MLOAD PUSH3 0x11F1 CODESIZE SUB DUP1 PUSH3 0x11F1 DUP4 CODECOPY DUP2 DUP2 ADD PUSH1 0x40 MSTORE DUP2 ADD SWAP1 PUSH3 0x36 SWAP2 SWAP1 PUSH3 0x117 JUMP JUMPDEST DUP2 PUSH20 0xFFFFFFFFFFFFFFFFFFFFFFFFFFFFFFFFFFFFFFFF AND PUSH1 0x80 DUP2 PUSH20 0xFFFFFFFFFFFFFFFFFFFFFFFFFFFFFFFFFFFFFFFF AND DUP2 MSTORE POP POP DUP1 PUSH1 0x1 PUSH0 PUSH2 0x100 EXP DUP2 SLOAD DUP2 PUSH20 0xFFFFFFFFFFFFFFFFFFFFFFFFFFFFFFFFFFFFFFFF MUL NOT AND SWAP1 DUP4 PUSH20 0xFFFFFFFFFFFFFFFFFFFFFFFFFFFFFFFFFFFFFFFF AND MUL OR SWAP1 SSTORE POP POP POP PUSH3 0x15C JUMP JUMPDEST PUSH0 DUP1 REVERT JUMPDEST PUSH0 PUSH20 0xFFFFFFFFFFFFFFFFFFFFFFFFFFFFFFFFFFFFFFFF DUP3 AND SWAP1 POP SWAP2 SWAP1 POP JUMP JUMPDEST PUSH0 PUSH3 0xE1 DUP3 PUSH3 0xB6 JUMP JUMPDEST SWAP1 POP SWAP2 SWAP1 POP JUMP JUMPDEST PUSH3 0xF3 DUP2 PUSH3 0xD5 JUMP JUMPDEST DUP2 EQ PUSH3 0xFE JUMPI PUSH0 DUP1 REVERT JUMPDEST POP JUMP JUMPDEST PUSH0 DUP2 MLOAD SWAP1 POP PUSH3 0x111 DUP2 PUSH3 0xE8 JUMP JUMPDEST SWAP3 SWAP2 POP POP JUMP JUMPDEST PUSH0 DUP1 PUSH1 0x40 DUP4 DUP6 SUB SLT ISZERO PUSH3 0x130 JUMPI PUSH3 0x12F PUSH3 0xB2 JUMP JUMPDEST JUMPDEST PUSH0 PUSH3 0x13F DUP6 DUP3 DUP7 ADD PUSH3 0x101 JUMP JUMPDEST SWAP3 POP POP PUSH1 0x20 PUSH3 0x152 DUP6 DUP3 DUP7 ADD PUSH3 0x101 JUMP JUMPDEST SWAP2 POP POP SWAP3 POP SWAP3 SWAP1 POP JUMP JUMPDEST PUSH1 0x80 MLOAD PUSH2 0x1060 PUSH3 0x191 PUSH0 CODECOPY PUSH0 DUP2 DUP2 PUSH2 0x23B ADD MSTORE DUP2 DUP2 PUSH2 0x393 ADD MSTORE DUP2 DUP2 PUSH2 0x598 ADD MSTORE DUP2 DUP2 PUSH2 0x657 ADD MSTORE PUSH2 0x8B4 ADD MSTORE PUSH2 0x1060 PUSH0 RETURN INVALID PUSH1 0x80 PUSH1 0x40 MSTORE CALLVALUE DUP1 ISZERO PUSH2 0xF JUMPI PUSH0 DUP1 REVERT JUMPDEST POP PUSH1 0x4 CALLDATASIZE LT PUSH2 0x91 JUMPI PUSH0 CALLDATALOAD PUSH1 0xE0 SHR DUP1 PUSH4 0x61D0E43A GT PUSH2 0x64 JUMPI DUP1 PUSH4 0x61D0E43A EQ PUSH2 0x10D JUMPI DUP1 PUSH4 0x9D242800 EQ PUSH2 0x129 JUMPI DUP1 PUSH4 0xA332A47C EQ PUSH2 0x147 JUMPI DUP1 PUSH4 0xA622EE7C EQ PUSH2 0x165 JUMPI DUP1 PUSH4 0xE5FBAB85 EQ PUSH2 0x197 JUMPI PUSH2 0x91 JUMP JUMPDEST DUP1 PUSH4 0x709DF45 EQ PUSH2 0x95 JUMPI DUP1 PUSH4 0x1FCCF672 EQ PUSH2 0xC7 JUMPI DUP1 PUSH4 0x3CCFD60B EQ PUSH2 0xE5 JUMPI DUP1 PUSH4 0x61D027B3 EQ PUSH2 0xEF JUMPI JUMPDEST PUSH0 DUP1 REVERT JUMPDEST PUSH2 0xAF PUSH1 0x4 DUP1 CALLDATASIZE SUB DUP2 ADD SWAP1 PUSH2 0xAA SWAP2 SWAP1 PUSH2 0xA2B JUMP JUMPDEST PUSH2 0x1B3 JUMP JUMPDEST PUSH1 0x40 MLOAD PUSH2 0xBE SWAP4 SWAP3 SWAP2 SWAP1 PUSH2 0xA6E JUMP JUMPDEST PUSH1 0x40 MLOAD DUP1 SWAP2 SUB SWAP1 RETURN JUMPDEST PUSH2 0xCF PUSH2 0x239 JUMP JUMPDEST PUSH1 0x40 MLOAD PUSH2 0xDC SWAP2 SWAP1 PUSH2 0xAFE JUMP JUMPDEST PUSH1 0x40 MLOAD DUP1 SWAP2 SUB SWAP1 RETURN JUMPDEST PUSH2 0xED PUSH2 0x25D JUMP JUMPDEST STOP JUMPDEST PUSH2 0xF7 PUSH2 0x47F JUMP JUMPDEST PUSH1 0x40 MLOAD PUSH2 0x104 SWAP2 SWAP1 PUSH2 0xB26 JUMP JUMPDEST PUSH1 0x40 MLOAD DUP1 SWAP2 SUB SWAP1 RETURN JUMPDEST PUSH2 0x127 PUSH1 0x4 DUP1 CALLDATASIZE SUB DUP2 ADD SWAP1 PUSH2 0x122 SWAP2 SWAP1 PUSH2 0xB69 JUMP JUMPDEST PUSH2 0x4A4 JUMP JUMPDEST STOP JUMPDEST PUSH2 0x131 PUSH2 0x779 JUMP JUMPDEST PUSH1 0x40 MLOAD PUSH2 0x13E SWAP2 SWAP1 PUSH2 0xBA7 JUMP JUMPDEST PUSH1 0x40 MLOAD DUP1 SWAP2 SUB SWAP1 RETURN JUMPDEST PUSH2 0x14F PUSH2 0x77E JUMP JUMPDEST PUSH1 0x40 MLOAD PUSH2 0x15C SWAP2 SWAP1 PUSH2 0xBA7 JUMP JUMPDEST PUSH1 0x40 MLOAD DUP1 SWAP2 SUB SWAP1 RETURN JUMPDEST PUSH2 0x17F PUSH1 0x4 DUP1 CALLDATASIZE SUB DUP2 ADD SWAP1 PUSH2 0x17A SWAP2 SWAP1 PUSH2 0xA2B JUMP JUMPDEST PUSH2 0x783 JUMP JUMPDEST PUSH1 0x40 MLOAD PUSH2 0x18E SWAP4 SWAP3 SWAP2 SWAP1 PUSH2 0xA6E JUMP JUMPDEST PUSH1 0x40 MLOAD DUP1 SWAP2 SUB SWAP1 RETURN JUMPDEST PUSH2 0x1B1 PUSH1 0x4 DUP1 CALLDATASIZE SUB DUP2 ADD SWAP1 PUSH2 0x1AC SWAP2 SWAP1 PUSH2 0xBC0 JUMP JUMPDEST PUSH2 0x7A8 JUMP JUMPDEST STOP JUMPDEST PUSH0 DUP1 PUSH0 DUP1 PUSH0 DUP1 DUP7 PUSH20 0xFFFFFFFFFFFFFFFFFFFFFFFFFFFFFFFFFFFFFFFF AND PUSH20 0xFFFFFFFFFFFFFFFFFFFFFFFFFFFFFFFFFFFFFFFF AND DUP2 MSTORE PUSH1 0x20 ADD SWAP1 DUP2 MSTORE PUSH1 0x20 ADD PUSH0 KECCAK256 PUSH1 0x40 MLOAD DUP1 PUSH1 0x60 ADD PUSH1 0x40 MSTORE SWAP1 DUP2 PUSH0 DUP3 ADD SLOAD DUP2 MSTORE PUSH1 0x20 ADD PUSH1 0x1 DUP3 ADD SLOAD DUP2 MSTORE PUSH1 0x20 ADD PUSH1 0x2 DUP3 ADD SLOAD DUP2 MSTORE POP POP SWAP1 POP DUP1 PUSH0 ADD MLOAD DUP2 PUSH1 0x20 ADD MLOAD DUP3 PUSH1 0x40 ADD MLOAD SWAP4 POP SWAP4 POP SWAP4 POP POP SWAP2 SWAP4 SWAP1 SWAP3 POP JUMP JUMPDEST PUSH32 0x0 DUP2 JUMP JUMPDEST PUSH0 DUP1 PUSH0 CALLER PUSH20 0xFFFFFFFFFFFFFFFFFFFFFFFFFFFFFFFFFFFFFFFF AND PUSH20 0xFFFFFFFFFFFFFFFFFFFFFFFFFFFFFFFFFFFFFFFF AND DUP2 MSTORE PUSH1 0x20 ADD SWAP1 DUP2 MSTORE PUSH1 0x20 ADD PUSH0 KECCAK256 SWAP1 POP PUSH0 DUP2 PUSH0 ADD SLOAD GT PUSH2 0x2E1 JUMPI PUSH1 0x40 MLOAD PUSH32 0x8C379A000000000000000000000000000000000000000000000000000000000 DUP2 MSTORE PUSH1 0x4 ADD PUSH2 0x2D8 SWAP1 PUSH2 0xC58 JUMP JUMPDEST PUSH1 0x40 MLOAD DUP1 SWAP2 SUB SWAP1 REVERT JUMPDEST DUP1 PUSH1 0x1 ADD SLOAD TIMESTAMP LT ISZERO PUSH2 0x328 JUMPI PUSH1 0x40 MLOAD PUSH32 0x8C379A000000000000000000000000000000000000000000000000000000000 DUP2 MSTORE PUSH1 0x4 ADD PUSH2 0x31F SWAP1 PUSH2 0xCC0 JUMP JUMPDEST PUSH1 0x40 MLOAD DUP1 SWAP2 SUB SWAP1 REVERT JUMPDEST PUSH0 DUP2 PUSH1 0x2 ADD SLOAD DUP3 PUSH0 ADD SLOAD PUSH2 0x33C SWAP2 SWAP1 PUSH2 0xD0B JUMP JUMPDEST SWAP1 POP PUSH0 DUP1 CALLER PUSH20 0xFFFFFFFFFFFFFFFFFFFFFFFFFFFFFFFFFFFFFFFF AND PUSH20 0xFFFFFFFFFFFFFFFFFFFFFFFFFFFFFFFFFFFFFFFF AND DUP2 MSTORE PUSH1 0x20 ADD SWAP1 DUP2 MSTORE PUSH1 0x20 ADD PUSH0 KECCAK256 PUSH0 DUP1 DUP3 ADD PUSH0 SWAP1 SSTORE PUSH1 0x1 DUP3 ADD PUSH0 SWAP1 SSTORE PUSH1 0x2 DUP3 ADD PUSH0 SWAP1 SSTORE POP POP PUSH32 0x0 PUSH20 0xFFFFFFFFFFFFFFFFFFFFFFFFFFFFFFFFFFFFFFFF AND PUSH4 0xA9059CBB CALLER DUP4 PUSH1 0x40 MLOAD DUP4 PUSH4 0xFFFFFFFF AND PUSH1 0xE0 SHL DUP2 MSTORE PUSH1 0x4 ADD PUSH2 0x3EC SWAP3 SWAP2 SWAP1 PUSH2 0xD3E JUMP JUMPDEST PUSH1 0x20 PUSH1 0x40 MLOAD DUP1 DUP4 SUB DUP2 PUSH0 DUP8 GAS CALL ISZERO DUP1 ISZERO PUSH2 0x408 JUMPI RETURNDATASIZE PUSH0 DUP1 RETURNDATACOPY RETURNDATASIZE PUSH0 REVERT JUMPDEST POP POP POP POP PUSH1 0x40 MLOAD RETURNDATASIZE PUSH1 0x1F NOT PUSH1 0x1F DUP3 ADD AND DUP3 ADD DUP1 PUSH1 0x40 MSTORE POP DUP2 ADD SWAP1 PUSH2 0x42C SWAP2 SWAP1 PUSH2 0xD9A JUMP JUMPDEST POP CALLER PUSH20 0xFFFFFFFFFFFFFFFFFFFFFFFFFFFFFFFFFFFFFFFF AND PUSH32 0x7084F5476618D8E60B11EF0D7D3F06914655ADB8793E28FF7F018D4C76D505D5 DUP3 PUSH1 0x40 MLOAD PUSH2 0x473 SWAP2 SWAP1 PUSH2 0xBA7 JUMP JUMPDEST PUSH1 0x40 MLOAD DUP1 SWAP2 SUB SWAP1 LOG2 POP POP JUMP JUMPDEST PUSH1 0x1 PUSH0 SWAP1 SLOAD SWAP1 PUSH2 0x100 EXP SWAP1 DIV PUSH20 0xFFFFFFFFFFFFFFFFFFFFFFFFFFFFFFFFFFFFFFFF AND DUP2 JUMP JUMPDEST PUSH0 DUP2 GT PUSH2 0x4E6 JUMPI PUSH1 0x40 MLOAD PUSH32 0x8C379A000000000000000000000000000000000000000000000000000000000 DUP2 MSTORE PUSH1 0x4 ADD PUSH2 0x4DD SWAP1 PUSH2 0xE0F JUMP JUMPDEST PUSH1 0x40 MLOAD DUP1 SWAP2 SUB SWAP1 REVERT JUMPDEST PUSH0 DUP1 PUSH0 DUP5 PUSH20 0xFFFFFFFFFFFFFFFFFFFFFFFFFFFFFFFFFFFFFFFF AND PUSH20 0xFFFFFFFFFFFFFFFFFFFFFFFFFFFFFFFFFFFFFFFF AND DUP2 MSTORE PUSH1 0x20 ADD SWAP1 DUP2 MSTORE PUSH1 0x20 ADD PUSH0 KECCAK256 SWAP1 POP PUSH0 DUP2 PUSH0 ADD SLOAD GT PUSH2 0x56A JUMPI PUSH1 0x40 MLOAD PUSH32 0x8C379A000000000000000000000000000000000000000000000000000000000 DUP2 MSTORE PUSH1 0x4 ADD PUSH2 0x561 SWAP1 PUSH2 0xC58 JUMP JUMPDEST PUSH1 0x40 MLOAD DUP1 SWAP2 SUB SWAP1 REVERT JUMPDEST PUSH0 PUSH2 0x2710 PUSH1 0x32 DUP5 PUSH2 0x57B SWAP2 SWAP1 PUSH2 0xE2D JUMP JUMPDEST PUSH2 0x585 SWAP2 SWAP1 PUSH2 0xE9B JUMP JUMPDEST SWAP1 POP PUSH0 DUP2 DUP5 PUSH2 0x594 SWAP2 SWAP1 PUSH2 0xECB JUMP JUMPDEST SWAP1 POP PUSH32 0x0 PUSH20 0xFFFFFFFFFFFFFFFFFFFFFFFFFFFFFFFFFFFFFFFF AND PUSH4 0x23B872DD CALLER PUSH1 0x1 PUSH0 SWAP1 SLOAD SWAP1 PUSH2 0x100 EXP SWAP1 DIV PUSH20 0xFFFFFFFFFFFFFFFFFFFFFFFFFFFFFFFFFFFFFFFF AND DUP6 PUSH1 0x40 MLOAD DUP5 PUSH4 0xFFFFFFFF AND PUSH1 0xE0 SHL DUP2 MSTORE PUSH1 0x4 ADD PUSH2 0x614 SWAP4 SWAP3 SWAP2 SWAP1 PUSH2 0xEFE JUMP JUMPDEST PUSH1 0x20 PUSH1 0x40 MLOAD DUP1 DUP4 SUB DUP2 PUSH0 DUP8 GAS CALL ISZERO DUP1 ISZERO PUSH2 0x630 JUMPI RETURNDATASIZE PUSH0 DUP1 RETURNDATACOPY RETURNDATASIZE PUSH0 REVERT JUMPDEST POP POP POP POP PUSH1 0x40 MLOAD RETURNDATASIZE PUSH1 0x1F NOT PUSH1 0x1F DUP3 ADD AND DUP3 ADD DUP1 PUSH1 0x40 MSTORE POP DUP2 ADD SWAP1 PUSH2 0x654 SWAP2 SWAP1 PUSH2 0xD9A JUMP JUMPDEST POP PUSH32 0x0 PUSH20 0xFFFFFFFFFFFFFFFFFFFFFFFFFFFFFFFFFFFFFFFF AND PUSH4 0x23B872DD CALLER ADDRESS DUP5 PUSH1 0x40 MLOAD DUP5 PUSH4 0xFFFFFFFF AND PUSH1 0xE0 SHL DUP2 MSTORE PUSH1 0x4 ADD PUSH2 0x6B2 SWAP4 SWAP3 SWAP2 SWAP1 PUSH2 0xEFE JUMP JUMPDEST PUSH1 0x20 PUSH1 0x40 MLOAD DUP1 DUP4 SUB DUP2 PUSH0 DUP8 GAS CALL ISZERO DUP1 ISZERO PUSH2 0x6CE JUMPI RETURNDATASIZE PUSH0 DUP1 RETURNDATACOPY RETURNDATASIZE PUSH0 REVERT JUMPDEST POP POP POP POP PUSH1 0x40 MLOAD RETURNDATASIZE PUSH1 0x1F NOT PUSH1 0x1F DUP3 ADD AND DUP3 ADD DUP1 PUSH1 0x40 MSTORE POP DUP2 ADD SWAP1 PUSH2 0x6F2 SWAP2 SWAP1 PUSH2 0xD9A JUMP JUMPDEST POP DUP1 DUP4 PUSH1 0x2 ADD PUSH0 DUP3 DUP3 SLOAD PUSH2 0x706 SWAP2 SWAP1 PUSH2 0xD0B JUMP JUMPDEST SWAP3 POP POP DUP2 SWAP1 SSTORE POP DUP5 PUSH20 0xFFFFFFFFFFFFFFFFFFFFFFFFFFFFFFFFFFFFFFFF AND CALLER PUSH20 0xFFFFFFFFFFFFFFFFFFFFFFFFFFFFFFFFFFFFFFFF AND PUSH32 0x5BC277F123189E58865EDCA1DDF0E9C8A4252CF0D97CDC8BBD84D6278655124E DUP4 PUSH1 0x40 MLOAD PUSH2 0x76A SWAP2 SWAP1 PUSH2 0xBA7 JUMP JUMPDEST PUSH1 0x40 MLOAD DUP1 SWAP2 SUB SWAP1 LOG3 POP POP POP POP POP JUMP JUMPDEST PUSH1 0x7 DUP2 JUMP JUMPDEST PUSH1 0x32 DUP2 JUMP JUMPDEST PUSH0 PUSH1 0x20 MSTORE DUP1 PUSH0 MSTORE PUSH1 0x40 PUSH0 KECCAK256 PUSH0 SWAP2 POP SWAP1 POP DUP1 PUSH0 ADD SLOAD SWAP1 DUP1 PUSH1 0x1 ADD SLOAD SWAP1 DUP1 PUSH1 0x2 ADD SLOAD SWAP1 POP DUP4 JUMP JUMPDEST PUSH1 0x7 DUP2 LT ISZERO PUSH2 0x7EC JUMPI PUSH1 0x40 MLOAD PUSH32 0x8C379A000000000000000000000000000000000000000000000000000000000 DUP2 MSTORE PUSH1 0x4 ADD PUSH2 0x7E3 SWAP1 PUSH2 0xF7D JUMP JUMPDEST PUSH1 0x40 MLOAD DUP1 SWAP2 SUB SWAP1 REVERT JUMPDEST PUSH0 DUP3 GT PUSH2 0x82E JUMPI PUSH1 0x40 MLOAD PUSH32 0x8C379A000000000000000000000000000000000000000000000000000000000 DUP2 MSTORE PUSH1 0x4 ADD PUSH2 0x825 SWAP1 PUSH2 0xE0F JUMP JUMPDEST PUSH1 0x40 MLOAD DUP1 SWAP2 SUB SWAP1 REVERT JUMPDEST PUSH0 DUP1 PUSH0 CALLER PUSH20 0xFFFFFFFFFFFFFFFFFFFFFFFFFFFFFFFFFFFFFFFF AND PUSH20 0xFFFFFFFFFFFFFFFFFFFFFFFFFFFFFFFFFFFFFFFF AND DUP2 MSTORE PUSH1 0x20 ADD SWAP1 DUP2 MSTORE PUSH1 0x20 ADD PUSH0 KECCAK256 SWAP1 POP PUSH0 DUP2 PUSH0 ADD SLOAD EQ PUSH2 0x8B2 JUMPI PUSH1 0x40 MLOAD PUSH32 0x8C379A000000000000000000000000000000000000000000000000000000000 DUP2 MSTORE PUSH1 0x4 ADD PUSH2 0x8A9 SWAP1 PUSH2 0xFE5 JUMP JUMPDEST PUSH1 0x40 MLOAD DUP1 SWAP2 SUB SWAP1 REVERT JUMPDEST PUSH32 0x0 PUSH20 0xFFFFFFFFFFFFFFFFFFFFFFFFFFFFFFFFFFFFFFFF AND PUSH4 0x23B872DD CALLER ADDRESS DUP7 PUSH1 0x40 MLOAD DUP5 PUSH4 0xFFFFFFFF AND PUSH1 0xE0 SHL DUP2 MSTORE PUSH1 0x4 ADD PUSH2 0x90F SWAP4 SWAP3 SWAP2 SWAP1 PUSH2 0xEFE JUMP JUMPDEST PUSH1 0x20 PUSH1 0x40 MLOAD DUP1 DUP4 SUB DUP2 PUSH0 DUP8 GAS CALL ISZERO DUP1 ISZERO PUSH2 0x92B JUMPI RETURNDATASIZE PUSH0 DUP1 RETURNDATACOPY RETURNDATASIZE PUSH0 REVERT JUMPDEST POP POP POP POP PUSH1 0x40 MLOAD RETURNDATASIZE PUSH1 0x1F NOT PUSH1 0x1F DUP3 ADD AND DUP3 ADD DUP1 PUSH1 0x40 MSTORE POP DUP2 ADD SWAP1 PUSH2 0x94F SWAP2 SWAP1 PUSH2 0xD9A JUMP JUMPDEST POP DUP3 DUP2 PUSH0 ADD DUP2 SWAP1 SSTORE POP PUSH1 0x1E DUP3 PUSH2 0x965 SWAP2 SWAP1 PUSH2 0xE2D JUMP JUMPDEST TIMESTAMP PUSH2 0x970 SWAP2 SWAP1 PUSH2 0xD0B JUMP JUMPDEST DUP2 PUSH1 0x1 ADD DUP2 SWAP1 SSTORE POP CALLER PUSH20 0xFFFFFFFFFFFFFFFFFFFFFFFFFFFFFFFFFFFFFFFF AND PUSH32 0x73A19DD210F1A7F902193214C0EE91DD35EE5B4D920CBA8D519ECA65A7B488CA DUP5 DUP5 PUSH1 0x40 MLOAD PUSH2 0x9C0 SWAP3 SWAP2 SWAP1 PUSH2 0x1003 JUMP JUMPDEST PUSH1 0x40 MLOAD DUP1 SWAP2 SUB SWAP1 LOG2 POP POP POP JUMP JUMPDEST PUSH0 DUP1 REVERT JUMPDEST PUSH0 PUSH20 0xFFFFFFFFFFFFFFFFFFFFFFFFFFFFFFFFFFFFFFFF DUP3 AND SWAP1 POP SWAP2 SWAP1 POP JUMP JUMPDEST PUSH0 PUSH2 0x9FA DUP3 PUSH2 0x9D1 JUMP JUMPDEST SWAP1 POP SWAP2 SWAP1 POP JUMP JUMPDEST PUSH2 0xA0A DUP2 PUSH2 0x9F0 JUMP JUMPDEST DUP2 EQ PUSH2 0xA14 JUMPI PUSH0 DUP1 REVERT JUMPDEST POP JUMP JUMPDEST PUSH0 DUP2 CALLDATALOAD SWAP1 POP PUSH2 0xA25 DUP2 PUSH2 0xA01 JUMP JUMPDEST SWAP3 SWAP2 POP POP JUMP JUMPDEST PUSH0 PUSH1 0x20 DUP3 DUP5 SUB SLT ISZERO PUSH2 0xA40 JUMPI PUSH2 0xA3F PUSH2 0x9CD JUMP JUMPDEST JUMPDEST PUSH0 PUSH2 0xA4D DUP5 DUP3 DUP6 ADD PUSH2 0xA17 JUMP JUMPDEST SWAP2 POP POP SWAP3 SWAP2 POP POP JUMP JUMPDEST PUSH0 DUP2 SWAP1 POP SWAP2 SWAP1 POP JUMP JUMPDEST PUSH2 0xA68 DUP2 PUSH2 0xA56 JUMP JUMPDEST DUP3 MSTORE POP POP JUMP JUMPDEST PUSH0 PUSH1 0x60 DUP3 ADD SWAP1 POP PUSH2 0xA81 PUSH0 DUP4 ADD DUP7 PUSH2 0xA5F JUMP JUMPDEST PUSH2 0xA8E PUSH1 0x20 DUP4 ADD DUP6 PUSH2 0xA5F JUMP JUMPDEST PUSH2 0xA9B PUSH1 0x40 DUP4 ADD DUP5 PUSH2 0xA5F JUMP JUMPDEST SWAP5 SWAP4 POP POP POP POP JUMP JUMPDEST PUSH0 DUP2 SWAP1 POP SWAP2 SWAP1 POP JUMP JUMPDEST PUSH0 PUSH2 0xAC6 PUSH2 0xAC1 PUSH2 0xABC DUP5 PUSH2 0x9D1 JUMP JUMPDEST PUSH2 0xAA3 JUMP JUMPDEST PUSH2 0x9D1 JUMP JUMPDEST SWAP1 POP SWAP2 SWAP1 POP JUMP JUMPDEST PUSH0 PUSH2 0xAD7 DUP3 PUSH2 0xAAC JUMP JUMPDEST SWAP1 POP SWAP2 SWAP1 POP JUMP JUMPDEST PUSH0 PUSH2 0xAE8 DUP3 PUSH2 0xACD JUMP JUMPDEST SWAP1 POP SWAP2 SWAP1 POP JUMP JUMPDEST PUSH2 0xAF8 DUP2 PUSH2 0xADE JUMP JUMPDEST DUP3 MSTORE POP POP JUMP JUMPDEST PUSH0 PUSH1 0x20 DUP3 ADD SWAP1 POP PUSH2 0xB11 PUSH0 DUP4 ADD DUP5 PUSH2 0xAEF JUMP JUMPDEST SWAP3 SWAP2 POP POP JUMP JUMPDEST PUSH2 0xB20 DUP2 PUSH2 0x9F0 JUMP JUMPDEST DUP3 MSTORE POP POP JUMP JUMPDEST PUSH0 PUSH1 0x20 DUP3 ADD SWAP1 POP PUSH2 0xB39 PUSH0 DUP4 ADD DUP5 PUSH2 0xB17 JUMP JUMPDEST SWAP3 SWAP2 POP POP JUMP JUMPDEST PUSH2 0xB48 DUP2 PUSH2 0xA56 JUMP JUMPDEST DUP2 EQ PUSH2 0xB52 JUMPI PUSH0 DUP1 REVERT JUMPDEST POP JUMP JUMPDEST PUSH0 DUP2 CALLDATALOAD SWAP1 POP PUSH2 0xB63 DUP2 PUSH2 0xB3F JUMP JUMPDEST SWAP3 SWAP2 POP POP JUMP JUMPDEST PUSH0 DUP1 PUSH1 0x40 DUP4 DUP6 SUB SLT ISZERO PUSH2 0xB7F JUMPI PUSH2 0xB7E PUSH2 0x9CD JUMP JUMPDEST JUMPDEST PUSH0 PUSH2 0xB8C DUP6 DUP3 DUP7 ADD PUSH2 0xA17 JUMP JUMPDEST SWAP3 POP POP PUSH1 0x20 PUSH2 0xB9D DUP6 DUP3 DUP7 ADD PUSH2 0xB55 JUMP JUMPDEST SWAP2 POP POP SWAP3 POP SWAP3 SWAP1 POP JUMP JUMPDEST PUSH0 PUSH1 0x20 DUP3 ADD SWAP1 POP PUSH2 0xBBA PUSH0 DUP4 ADD DUP5 PUSH2 0xA5F JUMP JUMPDEST SWAP3 SWAP2 POP POP JUMP JUMPDEST PUSH0 DUP1 PUSH1 0x40 DUP4 DUP6 SUB SLT ISZERO PUSH2 0xBD6 JUMPI PUSH2 0xBD5 PUSH2 0x9CD JUMP JUMPDEST JUMPDEST PUSH0 PUSH2 0xBE3 DUP6 DUP3 DUP7 ADD PUSH2 0xB55 JUMP JUMPDEST SWAP3 POP POP PUSH1 0x20 PUSH2 0xBF4 DUP6 DUP3 DUP7 ADD PUSH2 0xB55 JUMP JUMPDEST SWAP2 POP POP SWAP3 POP SWAP3 SWAP1 POP JUMP JUMPDEST PUSH0 DUP3 DUP3 MSTORE PUSH1 0x20 DUP3 ADD SWAP1 POP SWAP3 SWAP2 POP POP JUMP JUMPDEST PUSH32 0x4B686F6E6720636F206875000000000000000000000000000000000000000000 PUSH0 DUP3 ADD MSTORE POP JUMP JUMPDEST PUSH0 PUSH2 0xC42 PUSH1 0xB DUP4 PUSH2 0xBFE JUMP JUMPDEST SWAP2 POP PUSH2 0xC4D DUP3 PUSH2 0xC0E JUMP JUMPDEST PUSH1 0x20 DUP3 ADD SWAP1 POP SWAP2 SWAP1 POP JUMP JUMPDEST PUSH0 PUSH1 0x20 DUP3 ADD SWAP1 POP DUP2 DUP2 SUB PUSH0 DUP4 ADD MSTORE PUSH2 0xC6F DUP2 PUSH2 0xC36 JUMP JUMPDEST SWAP1 POP SWAP2 SWAP1 POP JUMP JUMPDEST PUSH32 0x436875612064656E2068616E0000000000000000000000000000000000000000 PUSH0 DUP3 ADD MSTORE POP JUMP JUMPDEST PUSH0 PUSH2 0xCAA PUSH1 0xC DUP4 PUSH2 0xBFE JUMP JUMPDEST SWAP2 POP PUSH2 0xCB5 DUP3 PUSH2 0xC76 JUMP JUMPDEST PUSH1 0x20 DUP3 ADD SWAP1 POP SWAP2 SWAP1 POP JUMP JUMPDEST PUSH0 PUSH1 0x20 DUP3 ADD SWAP1 POP DUP2 DUP2 SUB PUSH0 DUP4 ADD MSTORE PUSH2 0xCD7 DUP2 PUSH2 0xC9E JUMP JUMPDEST SWAP1 POP SWAP2 SWAP1 POP JUMP JUMPDEST PUSH32 0x4E487B7100000000000000000000000000000000000000000000000000000000 PUSH0 MSTORE PUSH1 0x11 PUSH1 0x4 MSTORE PUSH1 0x24 PUSH0 REVERT JUMPDEST PUSH0 PUSH2 0xD15 DUP3 PUSH2 0xA56 JUMP JUMPDEST SWAP2 POP PUSH2 0xD20 DUP4 PUSH2 0xA56 JUMP JUMPDEST SWAP3 POP DUP3 DUP3 ADD SWAP1 POP DUP1 DUP3 GT ISZERO PUSH2 0xD38 JUMPI PUSH2 0xD37 PUSH2 0xCDE JUMP JUMPDEST JUMPDEST SWAP3 SWAP2 POP POP JUMP JUMPDEST PUSH0 PUSH1 0x40 DUP3 ADD SWAP1 POP PUSH2 0xD51 PUSH0 DUP4 ADD DUP6 PUSH2 0xB17 JUMP JUMPDEST PUSH2 0xD5E PUSH1 0x20 DUP4 ADD DUP5 PUSH2 0xA5F JUMP JUMPDEST SWAP4 SWAP3 POP POP POP JUMP JUMPDEST PUSH0 DUP2 ISZERO ISZERO SWAP1 POP SWAP2 SWAP1 POP JUMP JUMPDEST PUSH2 0xD79 DUP2 PUSH2 0xD65 JUMP JUMPDEST DUP2 EQ PUSH2 0xD83 JUMPI PUSH0 DUP1 REVERT JUMPDEST POP JUMP JUMPDEST PUSH0 DUP2 MLOAD SWAP1 POP PUSH2 0xD94 DUP2 PUSH2 0xD70 JUMP JUMPDEST SWAP3 SWAP2 POP POP JUMP JUMPDEST PUSH0 PUSH1 0x20 DUP3 DUP5 SUB SLT ISZERO PUSH2 0xDAF JUMPI PUSH2 0xDAE PUSH2 0x9CD JUMP JUMPDEST JUMPDEST PUSH0 PUSH2 0xDBC DUP5 DUP3 DUP6 ADD PUSH2 0xD86 JUMP JUMPDEST SWAP2 POP POP SWAP3 SWAP2 POP POP JUMP JUMPDEST PUSH32 0x536F207469656E203E2030000000000000000000000000000000000000000000 PUSH0 DUP3 ADD MSTORE POP JUMP JUMPDEST PUSH0 PUSH2 0xDF9 PUSH1 0xB DUP4 PUSH2 0xBFE JUMP JUMPDEST SWAP2 POP PUSH2 0xE04 DUP3 PUSH2 0xDC5 JUMP JUMPDEST PUSH1 0x20 DUP3 ADD SWAP1 POP SWAP2 SWAP1 POP JUMP JUMPDEST PUSH0 PUSH1 0x20 DUP3 ADD SWAP1 POP DUP2 DUP2 SUB PUSH0 DUP4 ADD MSTORE PUSH2 0xE26 DUP2 PUSH2 0xDED JUMP JUMPDEST SWAP1 POP SWAP2 SWAP1 POP JUMP JUMPDEST PUSH0 PUSH2 0xE37 DUP3 PUSH2 0xA56 JUMP JUMPDEST SWAP2 POP PUSH2 0xE42 DUP4 PUSH2 0xA56 JUMP JUMPDEST SWAP3 POP DUP3 DUP3 MUL PUSH2 0xE50 DUP2 PUSH2 0xA56 JUMP JUMPDEST SWAP2 POP DUP3 DUP3 DIV DUP5 EQ DUP4 ISZERO OR PUSH2 0xE67 JUMPI PUSH2 0xE66 PUSH2 0xCDE JUMP JUMPDEST JUMPDEST POP SWAP3 SWAP2 POP POP JUMP JUMPDEST PUSH32 0x4E487B7100000000000000000000000000000000000000000000000000000000 PUSH0 MSTORE PUSH1 0x12 PUSH1 0x4 MSTORE PUSH1 0x24 PUSH0 REVERT JUMPDEST PUSH0 PUSH2 0xEA5 DUP3 PUSH2 0xA56 JUMP JUMPDEST SWAP2 POP PUSH2 0xEB0 DUP4 PUSH2 0xA56 JUMP JUMPDEST SWAP3 POP DUP3 PUSH2 0xEC0 JUMPI PUSH2 0xEBF PUSH2 0xE6E JUMP JUMPDEST JUMPDEST DUP3 DUP3 DIV SWAP1 POP SWAP3 SWAP2 POP POP JUMP JUMPDEST PUSH0 PUSH2 0xED5 DUP3 PUSH2 0xA56 JUMP JUMPDEST SWAP2 POP PUSH2 0xEE0 DUP4 PUSH2 0xA56 JUMP JUMPDEST SWAP3 POP DUP3 DUP3 SUB SWAP1 POP DUP2 DUP2 GT ISZERO PUSH2 0xEF8 JUMPI PUSH2 0xEF7 PUSH2 0xCDE JUMP JUMPDEST JUMPDEST SWAP3 SWAP2 POP POP JUMP JUMPDEST PUSH0 PUSH1 0x60 DUP3 ADD SWAP1 POP PUSH2 0xF11 PUSH0 DUP4 ADD DUP7 PUSH2 0xB17 JUMP JUMPDEST PUSH2 0xF1E PUSH1 0x20 DUP4 ADD DUP6 PUSH2 0xB17 JUMP JUMPDEST PUSH2 0xF2B PUSH1 0x40 DUP4 ADD DUP5 PUSH2 0xA5F JUMP JUMPDEST SWAP5 SWAP4 POP POP POP POP JUMP JUMPDEST PUSH32 0x4974206E6861742037206E676179000000000000000000000000000000000000 PUSH0 DUP3 ADD MSTORE POP JUMP JUMPDEST PUSH0 PUSH2 0xF67 PUSH1 0xE DUP4 PUSH2 0xBFE JUMP JUMPDEST SWAP2 POP PUSH2 0xF72 DUP3 PUSH2 0xF33 JUMP JUMPDEST PUSH1 0x20 DUP3 ADD SWAP1 POP SWAP2 SWAP1 POP JUMP JUMPDEST PUSH0 PUSH1 0x20 DUP3 ADD SWAP1 POP DUP2 DUP2 SUB PUSH0 DUP4 ADD MSTORE PUSH2 0xF94 DUP2 PUSH2 0xF5B JUMP JUMPDEST SWAP1 POP SWAP2 SWAP1 POP JUMP JUMPDEST PUSH32 0x446120636F206875000000000000000000000000000000000000000000000000 PUSH0 DUP3 ADD MSTORE POP JUMP JUMPDEST PUSH0 PUSH2 0xFCF PUSH1 0x8 DUP4 PUSH2 0xBFE JUMP JUMPDEST SWAP2 POP PUSH2 0xFDA DUP3 PUSH2 0xF9B JUMP JUMPDEST PUSH1 0x20 DUP3 ADD SWAP1 POP SWAP2 SWAP1 POP JUMP JUMPDEST PUSH0 PUSH1 0x20 DUP3 ADD SWAP1 POP DUP2 DUP2 SUB PUSH0 DUP4 ADD MSTORE PUSH2 0xFFC DUP2 PUSH2 0xFC3 JUMP JUMPDEST SWAP1 POP SWAP2 SWAP1 POP JUMP JUMPDEST PUSH0 PUSH1 0x40 DUP3 ADD SWAP1 POP PUSH2 0x1016 PUSH0 DUP4 ADD DUP6 PUSH2 0xA5F JUMP JUMPDEST PUSH2 0x1023 PUSH1 0x20 DUP4 ADD DUP5 PUSH2 0xA5F JUMP JUMPDEST SWAP4 SWAP3 POP POP POP JUMP INVALID LOG2 PUSH5 0x6970667358 0x22 SLT KECCAK256 DUP16 PUSH24 0x3A61DC195C1E627D4F2C950F938C9E537F86A4041FFEED3B ADDRESS 0xAA SWAP11 MLOAD CALLDATASIZE PUSH6 0x64736F6C6343 STOP ADDMOD XOR STOP CALLER "
				},
				"gasEstimates": {
					"creation": {
						"codeDepositCost": "838400",
						"executionCost": "infinite",
						"totalCost": "infinite"
					},
					"external": {
						"BOOST_FEE_BPS()": "369",
						"MIN_LOCK_DAYS()": "347",
						"boost(address,uint256)": "infinite",
						"cUSD()": "infinite",
						"createVault(uint256,uint256)": "infinite",
						"treasury()": "2575",
						"vaultOf(address)": "infinite",
						"vaults(address)": "infinite",
						"withdraw()": "infinite"
					}
				},
				"methodIdentifiers": {
					"BOOST_FEE_BPS()": "a332a47c",
					"MIN_LOCK_DAYS()": "9d242800",
					"boost(address,uint256)": "61d0e43a",
					"cUSD()": "1fccf672",
					"createVault(uint256,uint256)": "e5fbab85",
					"treasury()": "61d027b3",
					"vaultOf(address)": "0709df45",
					"vaults(address)": "a622ee7c",
					"withdraw()": "3ccfd60b"
				}
			},
			"storageLayout": {
				"storage": [
					{
						"astId": 101,
						"contract": "contracts/MicroSavingsVault.sol:MicroSavingsVault",
						"label": "vaults",
						"offset": 0,
						"slot": "0",
						"type": "t_mapping(t_address,t_struct(Vault)96_storage)"
					},
					{
						"astId": 103,
						"contract": "contracts/MicroSavingsVault.sol:MicroSavingsVault",
						"label": "treasury",
						"offset": 0,
						"slot": "1",
						"type": "t_address"
					}
				],
				"types": {
					"t_address": {
						"encoding": "inplace",
						"label": "address",
						"numberOfBytes": "20"
					},
					"t_mapping(t_address,t_struct(Vault)96_storage)": {
						"encoding": "mapping",
						"key": "t_address",
						"label": "mapping(address => struct MicroSavingsVault.Vault)",
						"numberOfBytes": "32",
						"value": "t_struct(Vault)96_storage"
					},
					"t_struct(Vault)96_storage": {
						"encoding": "inplace",
						"label": "struct MicroSavingsVault.Vault",
						"members": [
							{
								"astId": 91,
								"contract": "contracts/MicroSavingsVault.sol:MicroSavingsVault",
								"label": "amount",
								"offset": 0,
								"slot": "0",
								"type": "t_uint256"
							},
							{
								"astId": 93,
								"contract": "contracts/MicroSavingsVault.sol:MicroSavingsVault",
								"label": "unlockTime",
								"offset": 0,
								"slot": "1",
								"type": "t_uint256"
							},
							{
								"astId": 95,
								"contract": "contracts/MicroSavingsVault.sol:MicroSavingsVault",
								"label": "boosted",
								"offset": 0,
								"slot": "2",
								"type": "t_uint256"
							}
						],
						"numberOfBytes": "96"
					},
					"t_uint256": {
						"encoding": "inplace",
						"label": "uint256",
						"numberOfBytes": "32"
					}
				}
			},
			"userdoc": {
				"kind": "user",
				"methods": {},
				"version": 1
			}
		}
	}
}